{
  "contractName": "BrnMeterversePreSale",
  "abi": [
    {
      "inputs": [
        {
          "internalType": "address",
          "name": "_partnershipFundAddress",
          "type": "address"
        },
        {
          "internalType": "address",
          "name": "_airdropFundAddress",
          "type": "address"
        },
        {
          "internalType": "address",
          "name": "_marketingFundAddress",
          "type": "address"
        },
        {
          "internalType": "address",
          "name": "_staffFundAddress",
          "type": "address"
        },
        {
          "internalType": "address",
          "name": "_burnFundAddress",
          "type": "address"
        },
        {
          "internalType": "address",
          "name": "_holdersFundAddress",
          "type": "address"
        }
      ],
      "stateMutability": "nonpayable",
      "type": "constructor"
    },
    {
      "anonymous": false,
      "inputs": [
        {
          "indexed": true,
          "internalType": "address",
          "name": "previousOwner",
          "type": "address"
        },
        {
          "indexed": true,
          "internalType": "address",
          "name": "newOwner",
          "type": "address"
        }
      ],
      "name": "OwnershipTransferred",
      "type": "event"
    },
    {
      "inputs": [],
      "name": "airdropPercentage",
      "outputs": [
        {
          "internalType": "uint256",
          "name": "",
          "type": "uint256"
        }
      ],
      "stateMutability": "view",
      "type": "function"
    },
    {
      "inputs": [],
      "name": "burnPercentage",
      "outputs": [
        {
          "internalType": "uint256",
          "name": "",
          "type": "uint256"
        }
      ],
      "stateMutability": "view",
      "type": "function"
    },
    {
      "inputs": [],
      "name": "holdersPercentage",
      "outputs": [
        {
          "internalType": "uint256",
          "name": "",
          "type": "uint256"
        }
      ],
      "stateMutability": "view",
      "type": "function"
    },
    {
      "inputs": [],
      "name": "icoPhase",
      "outputs": [
        {
          "internalType": "enum BrnMeterversePreSale.ICOPresalePhase",
          "name": "",
          "type": "uint8"
        }
      ],
      "stateMutability": "view",
      "type": "function"
    },
    {
      "inputs": [],
      "name": "marketingPercentage",
      "outputs": [
        {
          "internalType": "uint256",
          "name": "",
          "type": "uint256"
        }
      ],
      "stateMutability": "view",
      "type": "function"
    },
    {
      "inputs": [],
      "name": "owner",
      "outputs": [
        {
          "internalType": "address",
          "name": "",
          "type": "address"
        }
      ],
      "stateMutability": "view",
      "type": "function"
    },
    {
      "inputs": [],
      "name": "partnershipPercentage",
      "outputs": [
        {
          "internalType": "uint256",
          "name": "",
          "type": "uint256"
        }
      ],
      "stateMutability": "view",
      "type": "function"
    },
    {
      "inputs": [],
      "name": "renounceOwnership",
      "outputs": [],
      "stateMutability": "nonpayable",
      "type": "function"
    },
    {
      "inputs": [],
      "name": "staffPercentage",
      "outputs": [
        {
          "internalType": "uint256",
          "name": "",
          "type": "uint256"
        }
      ],
      "stateMutability": "view",
      "type": "function"
    },
    {
      "inputs": [
        {
          "internalType": "address",
          "name": "newOwner",
          "type": "address"
        }
      ],
      "name": "transferOwnership",
      "outputs": [],
      "stateMutability": "nonpayable",
      "type": "function"
    },
    {
      "inputs": [
        {
          "internalType": "uint256",
          "name": "_phase",
          "type": "uint256"
        }
      ],
      "name": "setPreSalePhase",
      "outputs": [
        {
          "internalType": "bool",
          "name": "success",
          "type": "bool"
        }
      ],
      "stateMutability": "nonpayable",
      "type": "function"
    }
  ],
  "bytecode": "0x6101406040526000805460a060020a60ff0219169055600a6001819055600d60029081556032600355600f60045560059190915560065534801561004257600080fd5b506040516107de3803806107de83398101604081905261006191610122565b6100836100756401000000006100b2810204565b6401000000006100b6810204565b600160a060020a0395861660805293851660a05291841660c052831660e0528216610100521661012052610196565b3390565b60008054600160a060020a03838116600160a060020a0319831681178455604051919092169283917f8be0079c531659141344cd1fd0a4f28419497f9722a3daafe3b4186f6b6457e09190a35050565b8051600160a060020a038116811461011d57600080fd5b919050565b60008060008060008060c0878903121561013b57600080fd5b61014487610106565b955061015260208801610106565b945061016060408801610106565b935061016e60608801610106565b925061017c60808801610106565b915061018a60a08801610106565b90509295509295509295565b60805160a05160c05160e051610100516101205161060b6101d360003960005050600050506000505060005050600050506000505061060b6000f3fe608060405234801561001057600080fd5b50600436106100c6576000357c010000000000000000000000000000000000000000000000000000000090048063a6a8fbff1161008e578063a6a8fbff14610136578063d7ed55261461013f578063de20308a14610162578063ece5524a1461016b578063f01f20df14610174578063f2fde38b1461017d57600080fd5b80633475219d146100cb57806340d9da81146100e757806368955fb1146100f0578063715018a6146101115780638da5cb5b1461011b575b600080fd5b6100d460065481565b6040519081526020015b60405180910390f35b6100d460025481565b6000546101049060a060020a900460ff1681565b6040516100de91906104e2565b610119610190565b005b600054604051600160a060020a0390911681526020016100de565b6100d460015481565b61015261014d366004610523565b6101d2565b60405190151581526020016100de565b6100d460035481565b6100d460045481565b6100d460055481565b61011961018b36600461053c565b61038b565b600054600160a060020a031633146101c65760405160e560020a62461bcd0281526004016101bd90610565565b60405180910390fd5b6101d06000610443565b565b60008054600160a060020a031633146102005760405160e560020a62461bcd0281526004016101bd90610565565b816102345760008054819074ff0000000000000000000000000000000000000000191660a060020a825b02179055506102a7565b816001141561026857600080546001919074ff0000000000000000000000000000000000000000191660a060020a8361022a565b81600214156102a7576000805474ff00000000000000000000000000000000000000001916740200000000000000000000000000000000000000001790555b6000805460a060020a900460ff1660028111156102c6576102c66104b3565b14156102f157600a6102d98160646104a0565b600755506a05ca4ec2a79a7f67000000600855610383565b600160005460a060020a900460ff166002811115610311576103116104b3565b141561033c5760146103248160646104a0565b600755506a0ee3a5f48a68b552000000600855610383565b600260005460a060020a900460ff16600281111561035c5761035c6104b3565b141561038357601e61036f8160646104a0565b600755506a14adf4b7320334b90000006008555b506001919050565b600054600160a060020a031633146103b85760405160e560020a62461bcd0281526004016101bd90610565565b600160a060020a0381166104375760405160e560020a62461bcd02815260206004820152602660248201527f4f776e61626c653a206e6577206f776e657220697320746865207a65726f206160448201527f646472657373000000000000000000000000000000000000000000000000000060648201526084016101bd565b61044081610443565b50565b60008054600160a060020a0383811673ffffffffffffffffffffffffffffffffffffffff19831681178455604051919092169283917f8be0079c531659141344cd1fd0a4f28419497f9722a3daafe3b4186f6b6457e09190a35050565b60006104ac828461059a565b9392505050565b7f4e487b7100000000000000000000000000000000000000000000000000000000600052602160045260246000fd5b602081016003831061051d577f4e487b7100000000000000000000000000000000000000000000000000000000600052602160045260246000fd5b91905290565b60006020828403121561053557600080fd5b5035919050565b60006020828403121561054e57600080fd5b8135600160a060020a03811681146104ac57600080fd5b6020808252818101527f4f776e61626c653a2063616c6c6572206973206e6f7420746865206f776e6572604082015260600190565b6000826105d0577f4e487b7100000000000000000000000000000000000000000000000000000000600052601260045260246000fd5b50049056fea2646970667358221220563d92f29a2be06766b02c43853e904180392467dc9c1b4539fee0119e22cb6164736f6c634300080b0033",
  "immutableReferences": {},
  "source": "// SPDX-License-Identifier: MIT\npragma solidity ^0.8.0;\nimport '@openzeppelin/contracts/token/ERC20/utils/TokenTimeLock.sol';\nimport '@openzeppelin/contracts/access/Ownable.sol';\nimport '@openzeppelin/contracts/access/AccessControl.sol';\nimport '@openzeppelin/contracts/finance/PaymentSplitter.sol';\nimport '@openzeppelin/contracts/finance/VestingWallet.sol';\nimport '@openzeppelin/contracts/utils/math/SafeMath.sol';\n\n/**\n* @title BrnMeterversePreSale\n* @dev A contract that manages the BRN Meterverse Presale logic\n*/\ncontract BrnMeterversePreSale is Ownable {\n  using SafeMath for uint256;\n\n  //presale phases\n  enum ICOPresalePhase { Phase1, Phase2, Phase3 }\n\n  //set the default ICO phase\n  ICOPresalePhase public icoPhase = ICOPresalePhase.Phase1; //initial presale phase\n\n  //Token distributions\n  uint public partnershipPercentage = 10;\n  uint public airdropPercentage = 13;\n  uint public marketingPercentage = 50;\n  uint public staffPercentage = 15;\n  uint public burnPercentage = 10;\n  uint public holdersPercentage = 2;\n\n  //Wallet Addresses\n  address internal immutable partnershipFundAddress;\n  address internal immutable airdropFundAddress;\n  address internal immutable marketingFundAddress;\n  address internal immutable staffFundAddress;\n  address internal immutable burnFundAddress;\n  address internal immutable holdersFundAddress;\n\n  //Token rate based on the ico presale phase\n  uint internal icoPhaseRate;\n  uint internal icoPhaseAmount;\n  uint internal icoPhaseStakingPeriod;\n\n  constructor(\n    address _partnershipFundAddress,\n    address _airdropFundAddress,\n    address _marketingFundAddress ,\n    address _staffFundAddress,\n    address _burnFundAddress,\n    address _holdersFundAddress \n  ) public {\n    partnershipFundAddress = _partnershipFundAddress;\n    airdropFundAddress = _airdropFundAddress;\n    marketingFundAddress = _marketingFundAddress;\n    staffFundAddress = _staffFundAddress;\n    burnFundAddress = _burnFundAddress;\n    holdersFundAddress = _holdersFundAddress;\n  }\n\n  /**\n  * @notice enables the contract owner to set the ICO presale phase for the contract\n  * @param _phase uint\n  * @return success \n  */\n  function setPreSalePhase(uint _phase) public onlyOwner returns(bool success){\n    if(uint(ICOPresalePhase.Phase1) == _phase){\n      icoPhase = ICOPresalePhase.Phase1;\n    }else if(uint(ICOPresalePhase.Phase2) == _phase){\n      icoPhase = ICOPresalePhase.Phase2;\n    }else if(uint(ICOPresalePhase.Phase3) == _phase){\n      icoPhase = ICOPresalePhase.Phase3;\n    }\n\n    if(icoPhase == ICOPresalePhase.Phase1 ){\n      uint phase1Rate = 10;\n      icoPhaseRate = phase1Rate.div(100); //set pricerate to 0.1 for the first phase of the presale\n      icoPhaseAmount = 7000000 * 10 ** 18; //set the token amount to 7000000 for the first phase of the presale\n    }else if(icoPhase == ICOPresalePhase.Phase2 ){\n      uint phase2Rate = 20;\n      icoPhaseRate = phase2Rate.div(100); //set pricerate to 0.2 for the second phase of the presale\n      icoPhaseAmount = 18000000 * 10 ** 18; //set the token amount to 18000000 for the second phase of the presale\n    }else if(icoPhase == ICOPresalePhase.Phase3){\n      uint phase3Rate = 30;\n      icoPhaseRate = phase3Rate.div(100); //set pricerate to 0.3 for the last phase of the presale\n      icoPhaseAmount = 25000000 * 10 ** 18; //set the token amount to 25000000 for the last phase of the presale\n    }\n    return true;\n  }\n}\n",
  "sourcePath": "D:/Dickens/Programming/Blockchain/Projects/JOBS/BrnMeterverse/contracts/BrnMeterversePreSale.sol",
  "compiler": {
    "name": "solc",
    "version": "0.8.11+commit.d7f03943.Emscripten.clang"
  },
  "schemaVersion": "3.4.1",
  "updatedAt": "2022-01-30T01:17:26.857Z",
  "devdoc": {
    "details": "A contract that manages the BRN Meterverse Presale logic",
    "kind": "dev",
    "methods": {
      "owner()": {
        "details": "Returns the address of the current owner."
      },
      "renounceOwnership()": {
        "details": "Leaves the contract without owner. It will not be possible to call `onlyOwner` functions anymore. Can only be called by the current owner. NOTE: Renouncing ownership will leave the contract without an owner, thereby removing any functionality that is only available to the owner."
      },
      "setPreSalePhase(uint256)": {
        "params": {
          "_phase": "uint"
        },
        "returns": {
          "success": ""
        }
      },
      "transferOwnership(address)": {
        "details": "Transfers ownership of the contract to a new account (`newOwner`). Can only be called by the current owner."
      }
    },
    "title": "BrnMeterversePreSale",
    "version": 1
  },
  "userdoc": {
    "kind": "user",
    "methods": {
      "setPreSalePhase(uint256)": {
        "notice": "enables the contract owner to set the ICO presale phase for the contract"
      }
    },
    "version": 1
  }
}