{
  "contractName": "BrnMeterversePreSale",
  "abi": [
    {
      "inputs": [
        {
          "internalType": "contract BrnMeterverse",
          "name": "_token",
          "type": "address"
        },
        {
          "internalType": "address",
          "name": "_partnershipFundAddress",
          "type": "address"
        },
        {
          "internalType": "address",
          "name": "_airdropFundAddress",
          "type": "address"
        },
        {
          "internalType": "address",
          "name": "_marketingFundAddress",
          "type": "address"
        },
        {
          "internalType": "address",
          "name": "_staffFundAddress",
          "type": "address"
        },
        {
          "internalType": "address",
          "name": "_burnFundAddress",
          "type": "address"
        },
        {
          "internalType": "address",
          "name": "_holdersFundAddress",
          "type": "address"
        }
      ],
      "stateMutability": "nonpayable",
      "type": "constructor"
    },
    {
      "anonymous": false,
      "inputs": [
        {
          "indexed": true,
          "internalType": "address",
          "name": "previousOwner",
          "type": "address"
        },
        {
          "indexed": true,
          "internalType": "address",
          "name": "newOwner",
          "type": "address"
        }
      ],
      "name": "OwnershipTransferred",
      "type": "event"
    },
    {
      "anonymous": false,
      "inputs": [
        {
          "indexed": false,
          "internalType": "address",
          "name": "account",
          "type": "address"
        }
      ],
      "name": "Paused",
      "type": "event"
    },
    {
      "anonymous": false,
      "inputs": [
        {
          "indexed": false,
          "internalType": "address",
          "name": "account",
          "type": "address"
        }
      ],
      "name": "Unpaused",
      "type": "event"
    },
    {
      "inputs": [],
      "name": "airdropPercentage",
      "outputs": [
        {
          "internalType": "uint256",
          "name": "",
          "type": "uint256"
        }
      ],
      "stateMutability": "view",
      "type": "function"
    },
    {
      "inputs": [],
      "name": "burnPercentage",
      "outputs": [
        {
          "internalType": "uint256",
          "name": "",
          "type": "uint256"
        }
      ],
      "stateMutability": "view",
      "type": "function"
    },
    {
      "inputs": [],
      "name": "holdersPercentage",
      "outputs": [
        {
          "internalType": "uint256",
          "name": "",
          "type": "uint256"
        }
      ],
      "stateMutability": "view",
      "type": "function"
    },
    {
      "inputs": [],
      "name": "icoPhase",
      "outputs": [
        {
          "internalType": "enum BrnMeterversePreSale.ICOPresalePhase",
          "name": "",
          "type": "uint8"
        }
      ],
      "stateMutability": "view",
      "type": "function"
    },
    {
      "inputs": [],
      "name": "marketingPercentage",
      "outputs": [
        {
          "internalType": "uint256",
          "name": "",
          "type": "uint256"
        }
      ],
      "stateMutability": "view",
      "type": "function"
    },
    {
      "inputs": [],
      "name": "owner",
      "outputs": [
        {
          "internalType": "address",
          "name": "",
          "type": "address"
        }
      ],
      "stateMutability": "view",
      "type": "function"
    },
    {
      "inputs": [],
      "name": "partnershipPercentage",
      "outputs": [
        {
          "internalType": "uint256",
          "name": "",
          "type": "uint256"
        }
      ],
      "stateMutability": "view",
      "type": "function"
    },
    {
      "inputs": [],
      "name": "paused",
      "outputs": [
        {
          "internalType": "bool",
          "name": "",
          "type": "bool"
        }
      ],
      "stateMutability": "view",
      "type": "function"
    },
    {
      "inputs": [],
      "name": "renounceOwnership",
      "outputs": [],
      "stateMutability": "nonpayable",
      "type": "function"
    },
    {
      "inputs": [],
      "name": "staffPercentage",
      "outputs": [
        {
          "internalType": "uint256",
          "name": "",
          "type": "uint256"
        }
      ],
      "stateMutability": "view",
      "type": "function"
    },
    {
      "inputs": [
        {
          "internalType": "address",
          "name": "newOwner",
          "type": "address"
        }
      ],
      "name": "transferOwnership",
      "outputs": [],
      "stateMutability": "nonpayable",
      "type": "function"
    },
    {
      "inputs": [
        {
          "internalType": "uint256",
          "name": "_phase",
          "type": "uint256"
        }
      ],
      "name": "setPreSalePhase",
      "outputs": [
        {
          "internalType": "bool",
          "name": "success",
          "type": "bool"
        }
      ],
      "stateMutability": "nonpayable",
      "type": "function"
    }
  ],
  "bytecode": "0x6101406040526000805460a860020a60ff0219169055600a6001819055600d60029081556032600355600f60045560059190915560065534801561004257600080fd5b5060405161086938038061086983398101604081905261006191610142565b6100836100756401000000006100d6810204565b6401000000006100da810204565b6000805460a060020a60ff0219169055600a8054600160a060020a031916600160a060020a0398891617905594861660805292851660a05290841660c052831660e05282166101005216610120526101de565b3390565b60008054600160a060020a03838116600160a060020a0319831681178455604051919092169283917f8be0079c531659141344cd1fd0a4f28419497f9722a3daafe3b4186f6b6457e09190a35050565b600160a060020a038116811461013f57600080fd5b50565b600080600080600080600060e0888a03121561015d57600080fd5b87516101688161012a565b60208901519097506101798161012a565b604089015190965061018a8161012a565b606089015190955061019b8161012a565b60808901519094506101ac8161012a565b60a08901519093506101bd8161012a565b60c08901519092506101ce8161012a565b8091505092959891949750929550565b60805160a05160c05160e051610100516101205161064e61021b60003960005050600050506000505060005050600050506000505061064e6000f3fe608060405234801561001057600080fd5b50600436106100d1576000357c010000000000000000000000000000000000000000000000000000000090048063a6a8fbff1161008e578063a6a8fbff14610170578063d7ed552614610179578063de20308a1461018c578063ece5524a14610195578063f01f20df1461019e578063f2fde38b146101a757600080fd5b80633475219d146100d657806340d9da81146100f25780635c975abb146100fb57806368955fb11461012a578063715018a61461014b5780638da5cb5b14610155575b600080fd5b6100df60065481565b6040519081526020015b60405180910390f35b6100df60025481565b60005474010000000000000000000000000000000000000000900460ff165b60405190151581526020016100e9565b60005461013e9060a860020a900460ff1681565b6040516100e99190610525565b6101536101ba565b005b600054604051600160a060020a0390911681526020016100e9565b6100df60015481565b61011a610187366004610566565b6101fc565b6100df60035481565b6100df60045481565b6100df60055481565b6101536101b536600461057f565b6103ce565b600054600160a060020a031633146101f05760405160e560020a62461bcd0281526004016101e7906105a8565b60405180910390fd5b6101fa6000610486565b565b60008054600160a060020a0316331461022a5760405160e560020a62461bcd0281526004016101e7906105a8565b8161025f5760008054819075ff000000000000000000000000000000000000000000191660a860020a825b02179055506102d5565b816001141561029457600080546001919075ff000000000000000000000000000000000000000000191660a860020a83610255565b81600214156102d5576000805475ff000000000000000000000000000000000000000000191675020000000000000000000000000000000000000000001790555b6000805460a860020a900460ff1660028111156102f4576102f46104f6565b141561032657600a6103078160646104e3565b600755506a05ca4ec2a79a7f6700000060085562ed4e006009556103c6565b600160005460a860020a900460ff166002811115610346576103466104f6565b14156103785760146103598160646104e3565b600755506a0ee3a5f48a68b552000000600855629e34006009556103c6565b600260005460a860020a900460ff166002811115610398576103986104f6565b14156103c657601e6103ab8160646104e3565b600755506a14adf4b7320334b9000000600855624f1a006009555b506001919050565b600054600160a060020a031633146103fb5760405160e560020a62461bcd0281526004016101e7906105a8565b600160a060020a03811661047a5760405160e560020a62461bcd02815260206004820152602660248201527f4f776e61626c653a206e6577206f776e657220697320746865207a65726f206160448201527f646472657373000000000000000000000000000000000000000000000000000060648201526084016101e7565b61048381610486565b50565b60008054600160a060020a0383811673ffffffffffffffffffffffffffffffffffffffff19831681178455604051919092169283917f8be0079c531659141344cd1fd0a4f28419497f9722a3daafe3b4186f6b6457e09190a35050565b60006104ef82846105dd565b9392505050565b7f4e487b7100000000000000000000000000000000000000000000000000000000600052602160045260246000fd5b6020810160038310610560577f4e487b7100000000000000000000000000000000000000000000000000000000600052602160045260246000fd5b91905290565b60006020828403121561057857600080fd5b5035919050565b60006020828403121561059157600080fd5b8135600160a060020a03811681146104ef57600080fd5b6020808252818101527f4f776e61626c653a2063616c6c6572206973206e6f7420746865206f776e6572604082015260600190565b600082610613577f4e487b7100000000000000000000000000000000000000000000000000000000600052601260045260246000fd5b50049056fea26469706673582212208ecc4b1a97e8e2846a2caa415ec20749493036c518c06c0b45e90e4c0f99acc264736f6c634300080b0033",
  "immutableReferences": {},
  "source": "// SPDX-License-Identifier: MIT\npragma solidity ^0.8.0;\nimport '@openzeppelin/contracts/token/ERC20/utils/TokenTimeLock.sol';\nimport '@openzeppelin/contracts/access/Ownable.sol';\nimport '@openzeppelin/contracts/access/AccessControl.sol';\nimport '@openzeppelin/contracts/finance/PaymentSplitter.sol';\nimport '@openzeppelin/contracts/finance/VestingWallet.sol';\nimport '@openzeppelin/contracts/utils/math/SafeMath.sol';\nimport '@openzeppelin/contracts/security/Pausable.sol';\nimport '@openzeppelin/contracts/security/PullPayment.sol';\nimport './BrnMeterverse.sol';\n\n/**\n* @title BrnMeterversePreSale\n* @dev A contract that manages the BRN Meterverse Presale logic\n*/\ncontract BrnMeterversePreSale is Ownable, Pausable {\n  using SafeMath for uint256;\n\n  //presale phases\n  enum ICOPresalePhase { Phase1, Phase2, Phase3 }\n\n  //set the default ICO phase\n  ICOPresalePhase public icoPhase = ICOPresalePhase.Phase1; //initial presale phase\n\n  //Token distributions\n  uint public partnershipPercentage = 10;\n  uint public airdropPercentage = 13;\n  uint public marketingPercentage = 50;\n  uint public staffPercentage = 15;\n  uint public burnPercentage = 10;\n  uint public holdersPercentage = 2;\n\n  //Wallet Addresses\n  address internal immutable partnershipFundAddress;\n  address internal immutable airdropFundAddress;\n  address internal immutable marketingFundAddress;\n  address internal immutable staffFundAddress;\n  address internal immutable burnFundAddress;\n  address internal immutable holdersFundAddress;\n\n  //Token rate based on the ico presale phase\n  uint internal icoPhaseRate;\n  uint internal icoPhaseAmount;\n  uint internal icoPhaseStakingPeriod;\n\n  //track the BRN Meterverse\n  BrnMeterverse internal token;\n\n  constructor(\n    BrnMeterverse _token,\n    address _partnershipFundAddress,\n    address _airdropFundAddress,\n    address _marketingFundAddress ,\n    address _staffFundAddress,\n    address _burnFundAddress,\n    address _holdersFundAddress \n  ) public {\n    token = _token;\n    partnershipFundAddress = _partnershipFundAddress;\n    airdropFundAddress = _airdropFundAddress;\n    marketingFundAddress = _marketingFundAddress;\n    staffFundAddress = _staffFundAddress;\n    burnFundAddress = _burnFundAddress;\n    holdersFundAddress = _holdersFundAddress;\n  }\n\n  /**\n  * @notice enables the contract owner to set the ICO presale phase for the contract\n  * @param _phase uint\n  * @return success \n  */\n  function setPreSalePhase(uint _phase) public onlyOwner returns(bool success){\n    if(uint(ICOPresalePhase.Phase1) == _phase){\n      icoPhase = ICOPresalePhase.Phase1;\n    }else if(uint(ICOPresalePhase.Phase2) == _phase){\n      icoPhase = ICOPresalePhase.Phase2;\n    }else if(uint(ICOPresalePhase.Phase3) == _phase){\n      icoPhase = ICOPresalePhase.Phase3;\n    }\n\n    if(icoPhase == ICOPresalePhase.Phase1 ){\n      uint phase1Rate = 10;\n      icoPhaseRate = phase1Rate.div(100); //set pricerate to 0.1 for the first phase of the presale\n      icoPhaseAmount = 7000000 * 10 ** 18; //set the token amount to 7000000 for the first phase of the presale\n      icoPhaseStakingPeriod = 30 days * 6; //the presale phase will run for 6 months\n    }else if(icoPhase == ICOPresalePhase.Phase2 ){\n      uint phase2Rate = 20;\n      icoPhaseRate = phase2Rate.div(100); //set pricerate to 0.2 for the second phase of the presale\n      icoPhaseAmount = 18000000 * 10 ** 18; //set the token amount to 18000000 for the second phase of the presale\n      icoPhaseStakingPeriod = 30 days * 4; //the presale phase will run for 4 months\n    }else if(icoPhase == ICOPresalePhase.Phase3){\n      uint phase3Rate = 30;\n      icoPhaseRate = phase3Rate.div(100); //set pricerate to 0.3 for the last phase of the presale\n      icoPhaseAmount = 25000000 * 10 ** 18; //set the token amount to 25000000 for the last phase of the presale\n      icoPhaseStakingPeriod = 30 days * 2; //the presale phase will run for 2 months\n    }\n    return true;\n  }\n}\n",
  "sourcePath": "D:/Dickens/Programming/Blockchain/Projects/JOBS/BrnMeterverse/contracts/BrnMeterversePreSale.sol",
  "compiler": {
    "name": "solc",
    "version": "0.8.11+commit.d7f03943.Emscripten.clang"
  },
  "schemaVersion": "3.4.1",
  "updatedAt": "2022-01-30T03:18:45.618Z",
  "devdoc": {
    "details": "A contract that manages the BRN Meterverse Presale logic",
    "kind": "dev",
    "methods": {
      "owner()": {
        "details": "Returns the address of the current owner."
      },
      "paused()": {
        "details": "Returns true if the contract is paused, and false otherwise."
      },
      "renounceOwnership()": {
        "details": "Leaves the contract without owner. It will not be possible to call `onlyOwner` functions anymore. Can only be called by the current owner. NOTE: Renouncing ownership will leave the contract without an owner, thereby removing any functionality that is only available to the owner."
      },
      "setPreSalePhase(uint256)": {
        "params": {
          "_phase": "uint"
        },
        "returns": {
          "success": ""
        }
      },
      "transferOwnership(address)": {
        "details": "Transfers ownership of the contract to a new account (`newOwner`). Can only be called by the current owner."
      }
    },
    "title": "BrnMeterversePreSale",
    "version": 1
  },
  "userdoc": {
    "kind": "user",
    "methods": {
      "setPreSalePhase(uint256)": {
        "notice": "enables the contract owner to set the ICO presale phase for the contract"
      }
    },
    "version": 1
  }
}