{
  "contractName": "BrnMeterverse",
  "abi": [
    {
      "inputs": [],
      "stateMutability": "nonpayable",
      "type": "constructor"
    },
    {
      "anonymous": false,
      "inputs": [
        {
          "indexed": true,
          "internalType": "address",
          "name": "owner",
          "type": "address"
        },
        {
          "indexed": true,
          "internalType": "address",
          "name": "spender",
          "type": "address"
        },
        {
          "indexed": false,
          "internalType": "uint256",
          "name": "value",
          "type": "uint256"
        }
      ],
      "name": "Approval",
      "type": "event"
    },
    {
      "anonymous": false,
      "inputs": [
        {
          "indexed": true,
          "internalType": "address",
          "name": "previousOwner",
          "type": "address"
        },
        {
          "indexed": true,
          "internalType": "address",
          "name": "newOwner",
          "type": "address"
        }
      ],
      "name": "OwnershipTransferred",
      "type": "event"
    },
    {
      "anonymous": false,
      "inputs": [
        {
          "indexed": false,
          "internalType": "address",
          "name": "account",
          "type": "address"
        }
      ],
      "name": "Paused",
      "type": "event"
    },
    {
      "anonymous": false,
      "inputs": [
        {
          "indexed": true,
          "internalType": "address",
          "name": "from",
          "type": "address"
        },
        {
          "indexed": true,
          "internalType": "address",
          "name": "to",
          "type": "address"
        },
        {
          "indexed": false,
          "internalType": "uint256",
          "name": "value",
          "type": "uint256"
        }
      ],
      "name": "Transfer",
      "type": "event"
    },
    {
      "anonymous": false,
      "inputs": [
        {
          "indexed": false,
          "internalType": "address",
          "name": "account",
          "type": "address"
        }
      ],
      "name": "Unpaused",
      "type": "event"
    },
    {
      "inputs": [],
      "name": "_decimals",
      "outputs": [
        {
          "internalType": "uint8",
          "name": "",
          "type": "uint8"
        }
      ],
      "stateMutability": "view",
      "type": "function"
    },
    {
      "inputs": [],
      "name": "_name",
      "outputs": [
        {
          "internalType": "string",
          "name": "",
          "type": "string"
        }
      ],
      "stateMutability": "view",
      "type": "function"
    },
    {
      "inputs": [],
      "name": "_symbol",
      "outputs": [
        {
          "internalType": "string",
          "name": "",
          "type": "string"
        }
      ],
      "stateMutability": "view",
      "type": "function"
    },
    {
      "inputs": [],
      "name": "owner",
      "outputs": [
        {
          "internalType": "address",
          "name": "",
          "type": "address"
        }
      ],
      "stateMutability": "view",
      "type": "function"
    },
    {
      "inputs": [],
      "name": "renounceOwnership",
      "outputs": [],
      "stateMutability": "nonpayable",
      "type": "function"
    },
    {
      "inputs": [
        {
          "internalType": "address",
          "name": "newOwner",
          "type": "address"
        }
      ],
      "name": "transferOwnership",
      "outputs": [],
      "stateMutability": "nonpayable",
      "type": "function"
    },
    {
      "inputs": [],
      "name": "paused",
      "outputs": [
        {
          "internalType": "bool",
          "name": "",
          "type": "bool"
        }
      ],
      "stateMutability": "view",
      "type": "function"
    },
    {
      "inputs": [],
      "name": "name",
      "outputs": [
        {
          "internalType": "string",
          "name": "",
          "type": "string"
        }
      ],
      "stateMutability": "view",
      "type": "function"
    },
    {
      "inputs": [],
      "name": "symbol",
      "outputs": [
        {
          "internalType": "string",
          "name": "",
          "type": "string"
        }
      ],
      "stateMutability": "view",
      "type": "function"
    },
    {
      "inputs": [],
      "name": "decimals",
      "outputs": [
        {
          "internalType": "uint256",
          "name": "",
          "type": "uint256"
        }
      ],
      "stateMutability": "view",
      "type": "function"
    },
    {
      "inputs": [],
      "name": "totalSupply",
      "outputs": [
        {
          "internalType": "uint256",
          "name": "",
          "type": "uint256"
        }
      ],
      "stateMutability": "view",
      "type": "function"
    },
    {
      "inputs": [],
      "name": "getOwner",
      "outputs": [
        {
          "internalType": "address",
          "name": "",
          "type": "address"
        }
      ],
      "stateMutability": "view",
      "type": "function"
    },
    {
      "inputs": [
        {
          "internalType": "address",
          "name": "_account",
          "type": "address"
        }
      ],
      "name": "balanceOf",
      "outputs": [
        {
          "internalType": "uint256",
          "name": "",
          "type": "uint256"
        }
      ],
      "stateMutability": "view",
      "type": "function"
    },
    {
      "inputs": [
        {
          "internalType": "address",
          "name": "_recipient",
          "type": "address"
        },
        {
          "internalType": "uint256",
          "name": "_amount",
          "type": "uint256"
        }
      ],
      "name": "transfer",
      "outputs": [
        {
          "internalType": "bool",
          "name": "",
          "type": "bool"
        }
      ],
      "stateMutability": "nonpayable",
      "type": "function"
    },
    {
      "inputs": [
        {
          "internalType": "address",
          "name": "_sender",
          "type": "address"
        },
        {
          "internalType": "address",
          "name": "_recipient",
          "type": "address"
        },
        {
          "internalType": "uint256",
          "name": "_amount",
          "type": "uint256"
        }
      ],
      "name": "transferFrom",
      "outputs": [
        {
          "internalType": "bool",
          "name": "",
          "type": "bool"
        }
      ],
      "stateMutability": "nonpayable",
      "type": "function"
    },
    {
      "inputs": [
        {
          "internalType": "address",
          "name": "_owner",
          "type": "address"
        },
        {
          "internalType": "address",
          "name": "_spender",
          "type": "address"
        }
      ],
      "name": "allowance",
      "outputs": [
        {
          "internalType": "uint256",
          "name": "",
          "type": "uint256"
        }
      ],
      "stateMutability": "view",
      "type": "function"
    },
    {
      "inputs": [
        {
          "internalType": "address",
          "name": "_spender",
          "type": "address"
        },
        {
          "internalType": "uint256",
          "name": "_amount",
          "type": "uint256"
        }
      ],
      "name": "approve",
      "outputs": [
        {
          "internalType": "bool",
          "name": "",
          "type": "bool"
        }
      ],
      "stateMutability": "nonpayable",
      "type": "function"
    },
    {
      "inputs": [],
      "name": "withdraw",
      "outputs": [],
      "stateMutability": "nonpayable",
      "type": "function"
    },
    {
      "inputs": [
        {
          "internalType": "address",
          "name": "_spender",
          "type": "address"
        },
        {
          "internalType": "uint256",
          "name": "_addedValue",
          "type": "uint256"
        }
      ],
      "name": "increaseAllowance",
      "outputs": [
        {
          "internalType": "bool",
          "name": "",
          "type": "bool"
        }
      ],
      "stateMutability": "nonpayable",
      "type": "function"
    },
    {
      "inputs": [
        {
          "internalType": "address",
          "name": "_spender",
          "type": "address"
        },
        {
          "internalType": "uint256",
          "name": "_subtractedValue",
          "type": "uint256"
        }
      ],
      "name": "decreaseAllowance",
      "outputs": [
        {
          "internalType": "bool",
          "name": "",
          "type": "bool"
        }
      ],
      "stateMutability": "nonpayable",
      "type": "function"
    },
    {
      "inputs": [
        {
          "internalType": "uint256",
          "name": "_amount",
          "type": "uint256"
        }
      ],
      "name": "mint",
      "outputs": [
        {
          "internalType": "bool",
          "name": "",
          "type": "bool"
        }
      ],
      "stateMutability": "nonpayable",
      "type": "function"
    },
    {
      "inputs": [
        {
          "internalType": "address",
          "name": "_account",
          "type": "address"
        },
        {
          "internalType": "uint256",
          "name": "_amount",
          "type": "uint256"
        }
      ],
      "name": "burn",
      "outputs": [
        {
          "internalType": "bool",
          "name": "",
          "type": "bool"
        }
      ],
      "stateMutability": "nonpayable",
      "type": "function"
    },
    {
      "inputs": [],
      "name": "pause",
      "outputs": [],
      "stateMutability": "nonpayable",
      "type": "function"
    },
    {
      "inputs": [],
      "name": "unpause",
      "outputs": [],
      "stateMutability": "nonpayable",
      "type": "function"
    }
  ],
  "bytecode": "0x60806040523480156200001157600080fd5b5062000038620000296401000000006200015d810204565b64010000000062000161810204565b60408051808201909152600e8082527f42726e204d65746572766572736500000000000000000000000000000000000060209092019182526200007e91600191620001c6565b506040805180820190915260038082527f42524e00000000000000000000000000000000000000000000000000000000006020909201918252620000c591600291620001c6565b5060048054633b9aca00600381905561ffff19909116601217909155336000908152600560205260409020546200010a9164010000000062000c28620001b182021704565b336000818152600560209081526040808320949094556003549351938452919290917fddf252ad1be2c89b69c2b068fc378daa952ba7f163c4a11628f55a4df523b3ef910160405180910390a362000302565b3390565b60008054600160a060020a03838116600160a060020a0319831681178455604051919092169283917f8be0079c531659141344cd1fd0a4f28419497f9722a3daafe3b4186f6b6457e09190a35050565b6000620001bf82846200026c565b9392505050565b828054620001d490620002ac565b90600052602060002090601f016020900481019282620001f8576000855562000243565b82601f106200021357805160ff191683800117855562000243565b8280016001018555821562000243579182015b828111156200024357825182559160200191906001019062000226565b506200025192915062000255565b5090565b5b8082111562000251576000815560010162000256565b60008219821115620002a7577f4e487b7100000000000000000000000000000000000000000000000000000000600052601160045260246000fd5b500190565b600281046001821680620002c157607f821691505b60208210811415620002fc577f4e487b7100000000000000000000000000000000000000000000000000000000600052602260045260246000fd5b50919050565b61154280620003126000396000f3fe608060405234801561001057600080fd5b5060043610610175576000357c0100000000000000000000000000000000000000000000000000000000900480638456cb59116100e0578063a457c2d711610099578063a457c2d7146102dc578063a9059cbb146102ef578063b09f126614610302578063d28d88521461030a578063dd62ed3e14610312578063f2fde38b1461034b57600080fd5b80638456cb5914610270578063893d20e8146102785780638da5cb5b1461029d57806395d89b41146102ae5780639dc29fac146102b6578063a0712d68146102c957600080fd5b80633950935111610132578063395093511461020a5780633ccfd60b1461021d5780633f4ba83a146102275780635c975abb1461022f57806370a082311461023f578063715018a61461026857600080fd5b806306fdde031461017a578063095ea7b31461019857806318160ddd146101bb57806323b872dd146101cd578063313ce567146101e057806332424aa3146101eb575b600080fd5b61018261035e565b60405161018f9190611295565b60405180910390f35b6101ab6101a6366004611301565b6103f0565b604051901515815260200161018f565b6003545b60405190815260200161018f565b6101ab6101db36600461132b565b61043b565b60045460ff166101bf565b6004546101f89060ff1681565b60405160ff909116815260200161018f565b6101ab610218366004611301565b6106ad565b610225610715565b005b610225610744565b600454610100900460ff166101ab565b6101bf61024d366004611367565b600160a060020a031660009081526005602052604090205490565b61022561080c565b610225610843565b600054600160a060020a03165b604051600160a060020a03909116815260200161018f565b600054600160a060020a0316610285565b6101826108da565b6101ab6102c4366004611301565b6108e9565b6101ab6102d7366004611382565b61094c565b6101ab6102ea366004611301565b6109b8565b6101ab6102fd366004611301565b610a9c565b610182610ad5565b610182610b63565b6101bf61032036600461139b565b600160a060020a03918216600090815260066020908152604080832093909416825291909152205490565b610225610359366004611367565b610b70565b60606001805461036d906113ce565b80601f0160208091040260200160405190810160405280929190818152602001828054610399906113ce565b80156103e65780601f106103bb576101008083540402835291602001916103e6565b820191906000526020600020905b8154815290600101906020018083116103c957829003601f168201915b5050505050905090565b600454600090610100900460ff16156104275760405160e560020a62461bcd02815260040161041e90611422565b60405180910390fd5b610432338484610c3b565b50600192915050565b600454600090610100900460ff16156104695760405160e560020a62461bcd02815260040161041e90611422565b600160a060020a03841660009081526005602052604090205482106104d35760405160e560020a62461bcd02815260206004820152601b60248201527f42455032453a20496e73756666696369656e742042616c616e63650000000000604482015260640161041e565b600160a060020a038416600090815260066020908152604080832033845290915290205482106105485760405160e560020a62461bcd02815260206004820152601c60248201527f42455032453a20496e737566666963656e7420416c6c6f77616e636500000000604482015260640161041e565b600082116105c15760405160e560020a62461bcd02815260206004820152602560248201527f42455032453a205472616e7366657220416d6f756e742043616e6e6f7420626560448201527f207a65726f000000000000000000000000000000000000000000000000000000606482015260840161041e565b600160a060020a0384166000908152600560205260409020546105e49083610d9a565b600160a060020a038516600090815260056020908152604080832093909355600681528282203383529052205461061b9083610d9a565b600160a060020a0380861660009081526006602090815260408083203384528252808320949094559186168152600590915220546106599083610c28565b600160a060020a0380851660008181526005602052604090819020939093559151908616906000805160206114ed8339815191529061069b9086815260200190565b60405180910390a35060019392505050565b600454600090610100900460ff16156106db5760405160e560020a62461bcd02815260040161041e90611422565b336000818152600660209081526040808320600160a060020a0388168452909152902054610432919085906107109086610c28565b610c3b565b600054600160a060020a031633146107425760405160e560020a62461bcd02815260040161041e90611459565b565b600054600160a060020a031633146107715760405160e560020a62461bcd02815260040161041e90611459565b600454610100900460ff166107cb5760405160e560020a62461bcd02815260206004820152601460248201527f5061757361626c653a206e6f7420706175736564000000000000000000000000604482015260640161041e565b6004805461ff00191690556040513381527f5db9ee0a495bf2e6ff9c91a7834c1ba4fdd244a5e8aa4e537bd38aeae4b073aa906020015b60405180910390a1565b600054600160a060020a031633146108395760405160e560020a62461bcd02815260040161041e90611459565b6107426000610da6565b600054600160a060020a031633146108705760405160e560020a62461bcd02815260040161041e90611459565b600454610100900460ff161561089b5760405160e560020a62461bcd02815260040161041e90611422565b6004805461ff0019166101001790556040513381527f62e78cea01bee320cd4e420270b5ea74000d11b0c9f74754ebdbfc544b05a25890602001610802565b60606002805461036d906113ce565b60008054600160a060020a031633146109175760405160e560020a62461bcd02815260040161041e90611459565b600454610100900460ff16156109425760405160e560020a62461bcd02815260040161041e90611422565b6104328383610e03565b60008054600160a060020a0316331461097a5760405160e560020a62461bcd02815260040161041e90611459565b600454610100900460ff16156109a55760405160e560020a62461bcd02815260040161041e90611422565b6109af3383610f8c565b5060015b919050565b600454600090610100900460ff16156109e65760405160e560020a62461bcd02815260040161041e90611422565b336000908152600660209081526040808320600160a060020a038716845290915290205482811015610a5d5760405160e560020a62461bcd02815260206004820152601d60248201527f42455032453a20496e73756666696369656e7420416c6c6f77616e6365000000604482015260640161041e565b336000818152600660209081526040808320600160a060020a0389168452909152902054610a92919086906107109087610d9a565b5060019392505050565b600454600090610100900460ff1615610aca5760405160e560020a62461bcd02815260040161041e90611422565b610432338484611063565b60028054610ae2906113ce565b80601f0160208091040260200160405190810160405280929190818152602001828054610b0e906113ce565b8015610b5b5780601f10610b3057610100808354040283529160200191610b5b565b820191906000526020600020905b815481529060010190602001808311610b3e57829003601f168201915b505050505081565b60018054610ae2906113ce565b600054600160a060020a03163314610b9d5760405160e560020a62461bcd02815260040161041e90611459565b600160a060020a038116610c1c5760405160e560020a62461bcd02815260206004820152602660248201527f4f776e61626c653a206e6577206f776e657220697320746865207a65726f206160448201527f6464726573730000000000000000000000000000000000000000000000000000606482015260840161041e565b610c2581610da6565b50565b6000610c3482846114bd565b9392505050565b600160a060020a038316610cb95760405160e560020a62461bcd028152602060048201526024808201527f42455032453a20617070726f76652066726f6d20746865207a65726f2061646460448201527f7265737300000000000000000000000000000000000000000000000000000000606482015260840161041e565b600160a060020a038216610d385760405160e560020a62461bcd02815260206004820152602260248201527f42455032453a20617070726f766520746f20746865207a65726f20616464726560448201527f7373000000000000000000000000000000000000000000000000000000000000606482015260840161041e565b600160a060020a0383811660008181526006602090815260408083209487168084529482529182902085905590518481527f8c5be1e5ebec7d5bd14f71427d1e84f3dd0314c0f7b2291e5b200ac8c7c3b92591015b60405180910390a3505050565b6000610c3482846114d5565b60008054600160a060020a0383811673ffffffffffffffffffffffffffffffffffffffff19831681178455604051919092169283917f8be0079c531659141344cd1fd0a4f28419497f9722a3daafe3b4186f6b6457e09190a35050565b600160a060020a038216610e825760405160e560020a62461bcd02815260206004820152602160248201527f42455032453a206275726e2066726f6d20746865207a65726f2061646472657360448201527f7300000000000000000000000000000000000000000000000000000000000000606482015260840161041e565b600160a060020a03821660009081526005602052604090205481811015610f145760405160e560020a62461bcd02815260206004820152602260248201527f42455032453a206275726e20616d6f756e7420657863656564732062616c616e60448201527f6365000000000000000000000000000000000000000000000000000000000000606482015260840161041e565b600160a060020a038316600090815260056020526040902054610f379083610d9a565b600160a060020a038416600090815260056020526040902055600354610f5d9083610d9a565b600355604051828152600090600160a060020a038516906000805160206114ed83398151915290602001610d8d565b600160a060020a038216610fe55760405160e560020a62461bcd02815260206004820152601f60248201527f42455032453a206d696e7420746f20746865207a65726f206164647265737300604482015260640161041e565b600354610ff29082610c28565b600355600160a060020a0382166000908152600560205260409020546110189082610c28565b600160a060020a0383166000818152600560205260408082209390935591519091906000805160206114ed833981519152906110579085815260200190565b60405180910390a35050565b600160a060020a0383166110e25760405160e560020a62461bcd02815260206004820152602560248201527f42455032453a207472616e736665722066726f6d20746865207a65726f20616460448201527f6472657373000000000000000000000000000000000000000000000000000000606482015260840161041e565b600160a060020a0382166111615760405160e560020a62461bcd02815260206004820152602360248201527f42455032453a207472616e7366657220746f20746865207a65726f206164647260448201527f6573730000000000000000000000000000000000000000000000000000000000606482015260840161041e565b600160a060020a038316600090815260056020526040902054818110156111f35760405160e560020a62461bcd02815260206004820152602660248201527f42455032453a207472616e7366657220616d6f756e742065786365656473206260448201527f616c616e63650000000000000000000000000000000000000000000000000000606482015260840161041e565b600160a060020a0384166000908152600560205260409020546112169083610d9a565b600160a060020a0380861660009081526005602052604080822093909355908516815220546112459083610c28565b600160a060020a0380851660008181526005602052604090819020939093559151908616906000805160206114ed833981519152906112879086815260200190565b60405180910390a350505050565b600060208083528351808285015260005b818110156112c2578581018301518582016040015282016112a6565b818111156112d4576000604083870101525b50601f01601f1916929092016040019392505050565b8035600160a060020a03811681146109b357600080fd5b6000806040838503121561131457600080fd5b61131d836112ea565b946020939093013593505050565b60008060006060848603121561134057600080fd5b611349846112ea565b9250611357602085016112ea565b9150604084013590509250925092565b60006020828403121561137957600080fd5b610c34826112ea565b60006020828403121561139457600080fd5b5035919050565b600080604083850312156113ae57600080fd5b6113b7836112ea565b91506113c5602084016112ea565b90509250929050565b6002810460018216806113e257607f821691505b6020821081141561141c577f4e487b7100000000000000000000000000000000000000000000000000000000600052602260045260246000fd5b50919050565b60208082526010908201527f5061757361626c653a2070617573656400000000000000000000000000000000604082015260600190565b6020808252818101527f4f776e61626c653a2063616c6c6572206973206e6f7420746865206f776e6572604082015260600190565b7f4e487b7100000000000000000000000000000000000000000000000000000000600052601160045260246000fd5b600082198211156114d0576114d061148e565b500190565b6000828210156114e7576114e761148e565b50039056feddf252ad1be2c89b69c2b068fc378daa952ba7f163c4a11628f55a4df523b3efa2646970667358221220ca349d9779aca1759ae64cbee52150b934fd01128b5a023332111e4fb9a5be9764736f6c634300080b0033",
  "immutableReferences": {},
  "source": "// SPDX-License-Identifier: MIT\npragma solidity ^0.8.0;\npragma abicoder v2;\n\nimport '@openzeppelin/contracts/access/Ownable.sol';\nimport '@openzeppelin/contracts/utils/math/SafeMath.sol';\nimport '@openzeppelin/contracts/security/ReentrancyGuard.sol';\nimport './interfaces/IBEP2E.sol';\n\n//TODO - Inherit from ReentrancyGuard\ncontract BrnMeterverse is Ownable, IBEP2E {\n  using SafeMath for uint256;\n\n  string public _name; //token name\n  string public _symbol; //token symbol \n  uint private _totalSupply; //total supply\n  uint8 public _decimals; //the total number of decimal represenations\n  bool private _paused;\n\n  mapping(address => uint) private balances; //how token much does this address have\n  mapping(address => mapping(address => uint)) private allowances; //the amount approved by the owner to be spent on their behalf\n  event Unpaused(address account); // Emitted when the pause is triggered by `account`.\n  event Paused(address account); //Emitted when the pause is lifted by `account`.\n\n  constructor() public {\n    _name = \"Brn Meterverse\"; \n    _symbol = \"BRN\";\n    _decimals = 18;\n    _totalSupply = 1000000000;\n    _paused = false;\n    balances[msg.sender] = balances[msg.sender].add(_totalSupply);\n    emit Transfer(address(0), msg.sender, _totalSupply);\n  }\n\n  /**\n  * @dev Modifier to make a function callable only when the contract is not paused.\n  *\n  * Requirements:\n  *\n  * - The contract must not be paused.\n  */\n  modifier whenNotPaused() {\n    require(!paused(), \"Pausable: paused\");\n     _;\n  }\n\n  /**\n  * @dev Modifier to make a function callable only when the contract is paused.\n  *\n  * Requirements:\n  *\n  * - The contract must be paused.\n  */\n  modifier whenPaused() {\n    require(paused(), \"Pausable: not paused\");\n    _;\n  }\n\n  /**\n  * @dev Returns true if the contract is paused, and false otherwise.\n  */\n  function paused() public view returns (bool) {\n    return _paused;\n  }\n   \n  /**\n  * @notice token name\n  * @return string token name\n  */\n  function name() public view override returns(string memory){\n    return _name;\n  }\n\n  /** \n  * @notice token symbol\n  * @return string symbol. The Token Symbol\n  */\n  function symbol() public view override returns(string memory){\n    return _symbol;\n  }\n\n  /**\n  * @notice the total number of decimals for the BRN token\n  * @return uint number of decimals\n  */\n  function decimals() public view override returns(uint){\n    return _decimals;\n  }\n\n  /**\n  * @notice the total token supply in circulation\n  * @return uint total supply\n  */\n  function totalSupply() public view override returns(uint){\n    return _totalSupply;\n  }\n\n  /**\n  * @notice should return the address of the contract owner\n  * @return address the owner address specified in the Ownable contract\n  */\n  function getOwner() public view override returns (address){\n    return owner();\n  }\n  \n  /**\n  * @notice how much token balance does this address have\n  * @dev the account should not be the zero address , address(0)\n  * @param _account account the address to which we want to determine their token balance\n  * @return uint the total balance of the specied address\n  */\n  function balanceOf(address _account) public view override returns (uint256){\n    return balances[_account];\n  }\n\n  /**\n  * @notice transfer a specicied amount pf tokens to a recipient address\n  * @dev the recipient address should not be an empty address address(0)\n  * @dev the sender's total balance must be equal to or greater than the amount specified\n  * @dev the nonReentrant modifier protects this function from reentrancy attacks\n  * @param _recipient address the person receiving the tokens\n  * @param _amount uint the amount of tokens to be sent to the specied address as the recepient\n  * @return bool success if the transfer was successfull otherwise false\n  */\n  function transfer(address _recipient, uint _amount) public override whenNotPaused returns (bool){ //nonReentrant\n      _transfer(msg.sender, _recipient, _amount);\n      return true;\n  }\n\n  /**\n  * @notice transfer the specidied amount of tokens from the sender address to the recipient address\n  * @dev both the sender and recipient address should not be the empty address, address(0)\n  * @dev the amount of tokens being moved from the sender to the recipient address should \n  * @dev not be less than the sender's total balances\n  * @dev the nonReentrant modifier protects this function from reentrancy attacks\n  * @param _sender address\n  * @param _recipient address\n  * @param _amount uint\n  * @return bool if the transfer event was successfull\n  */\n  function transferFrom(address _sender, address _recipient, uint _amount) public override whenNotPaused returns (bool) {\n    require(balances[_sender] > _amount,\"BEP2E: Insufficient Balance\");\n    require(allowances[_sender][msg.sender] > _amount,\"BEP2E: Insufficent Allowance\");\n    require(_amount > 0,\"BEP2E: Transfer Amount Cannot be zero\");\n    balances[_sender] = balances[_sender].sub(_amount);\n    allowances[_sender][msg.sender] = allowances[_sender][msg.sender].sub(_amount);\n    balances[_recipient] = balances[_recipient].add(_amount);\n    emit Transfer(_sender,_recipient, _amount);\n    return true;\n  }\n\n  /**\n  * @notice returns the amount that owner appoved as allowance for the spender\n  * @dev both the owner and spender addresses should not be empty addresse address(0)\n  * @param _owner address the owner address\n  * @param _spender address the spender address\n  * @return uint, the amount approved for spending\n  */\n  function allowance(address _owner, address _spender) public override view returns (uint256) {\n    return allowances[_owner][_spender];\n  }\n\n  /**\n  * @notice enables the token holder to add a new address than can spend the tokens on their behalf\n  * @dev the spender address should not be an empty address(0)\n  * @dev the amount to be approved should not be less than the sender's balance\n  * @param _spender address, the approved address\n  * @param _amount uint , the amount to approved by the token holder\n  * @return bool true if success otherwise false\n  */\n  function approve(address _spender, uint _amount) public override whenNotPaused returns (bool) {\n    _approve(msg.sender, _spender, _amount);\n    return true;\n  }\n\n  function withdraw() public onlyOwner { //nonReentrant\n\n  }\n\n  /**\n   * @dev Atomically increases the allowance granted to `spender` by the caller.\n   * @param _spender address \n   * @param _addedValue uint \n   * @return bool true if success otherwise false\n   */\n  function increaseAllowance(address _spender, uint _addedValue) public whenNotPaused returns (bool) {\n    _approve(msg.sender, _spender, allowances[msg.sender][_spender].add(_addedValue));\n    return true;\n  }\n\n  /**\n   * @dev Atomically decreases the allowance granted to spender by the caller\n   * @param _spender address \n   * @param _subtractedValue uint\n   * @return bool true if success otherwise false\n   */\n  function decreaseAllowance(address _spender, uint _subtractedValue) public whenNotPaused returns (bool) {\n    uint currentAllowance = allowances[msg.sender][_spender];\n    require(currentAllowance >= _subtractedValue,\"BEP2E: Insufficient Allowance\");\n    _approve(msg.sender, _spender, allowances[msg.sender][_spender].sub(_subtractedValue));\n    return true;\n  }\n\n  /**\n   * @dev Creates `amount` tokens and assigns them to `msg.sender`, increasing\n   * the total supply.\n   * @param _amount uint \n   * @return bool if success othwerise false\n   */\n  function mint(uint _amount) public onlyOwner whenNotPaused returns (bool) {\n    _mint(msg.sender, _amount);\n    return true;\n  }\n\n  /**\n   * @dev Destroys amount tokens from account, reducing the\n   * total supply.\n   * @dev account cannot be the zero address.\n   * @dev account must have at least amount tokens.\n   * @param _account address\n   * @param _amount uint\n   * @return bool true if success otherwise false\n   */\n  function burn(address _account, uint _amount) public onlyOwner whenNotPaused returns(bool){\n    _burn(_account, _amount);\n    return true;\n  }\n\n  /**\n  * @dev Triggers stopped state.\n  *\n  * Requirements:\n  *\n  * - The contract must not be paused.\n  */\n  function pause() public onlyOwner whenNotPaused {\n    _paused = true;\n    emit Paused(msg.sender);\n  }\n\n  /**\n  * @dev Returns to normal state.\n  *\n  * Requirements:\n  *\n  * - The contract must be paused.\n  */\n  function unpause() public onlyOwner whenPaused {\n    _paused = false;\n    emit Unpaused(msg.sender);\n  }\n\n  \n  /**\n  * -- INTERNAL FUNCTIONS -- \n  */\n\n  /**\n  * @dev Moves tokens amount from sender to recipient.\n  * @dev _sender cannot be the zero address.\n  * @dev recipient cannot be the zero address.\n  * @dev sender must have a balance of at least amount\n  * @param _sender address thes account sending the tokens amount\n  * @param _recipient address the account receiving the tokens\n  * @param _amount uint the token amount to be sent\n  */\n  function _transfer(address _sender, address _recipient, uint _amount) internal virtual {\n    require(_sender != address(0), \"BEP2E: transfer from the zero address\");\n    require(_recipient != address(0), \"BEP2E: transfer to the zero address\");\n\n    _beforeTokenTransfer(_sender, _recipient, _amount);\n\n    uint senderBalance = balances[_sender];\n\n    require(senderBalance >= _amount, \"BEP2E: transfer amount exceeds balance\");\n\n    balances[_sender] = balances[_sender].sub(_amount);\n    balances[_recipient] = balances[_recipient].add(_amount);\n    emit Transfer(_sender, _recipient, _amount);\n    _afterTokenTransfer(_sender, _recipient, _amount);\n  }\n\n  /** @dev Creates amount tokens and assigns them to account, increasing\n   * the total supply.\n   * @dev to cannot be the zero address.\n   * @param _account address \n   * @param _amount uint \n   */\n  function _mint(address _account, uint _amount) internal virtual {\n    require(_account != address(0), \"BEP2E: mint to the zero address\");\n\n    _beforeTokenTransfer(address(0), _account, _amount);\n\n    _totalSupply = _totalSupply.add(_amount);\n    balances[_account] = balances[_account].add(_amount);\n    emit Transfer(address(0), _account, _amount);\n    _afterTokenTransfer(address(0), _account, _amount);\n  }\n\n  /**\n   * @dev Destroys amount tokens from account, reducing the\n   * total supply.\n   * @dev account cannot be the zero address.\n   * @dev account must have at least amount tokens.\n   * @param _account address\n   * @param _amount uint \n   */\n  function _burn(address _account, uint _amount) internal virtual {\n    require(_account != address(0), \"BEP2E: burn from the zero address\");\n\n    _beforeTokenTransfer(_account, address(0), _amount);\n\n    uint accountBalance = balances[_account];\n    require(accountBalance >= _amount,\"BEP2E: burn amount exceeds balance\");\n\n    balances[_account] = balances[_account].sub(_amount);\n    _totalSupply = _totalSupply.sub(_amount);\n    emit Transfer(_account, address(0), _amount);\n    _afterTokenTransfer(_account, address(0), _amount);\n  }\n\n  /**\n   * @dev Sets amount as the allowance of spender over the owner`s tokens.\n   * @dev owner cannot be the zero address.\n   * @dev spender cannot be the zero address.\n   * @param _owner address\n   * @param _spender address\n   * @param _amount uint  \n   */\n  function _approve(address _owner, address _spender, uint _amount) internal virtual {\n    require(_owner != address(0), \"BEP2E: approve from the zero address\");\n    require(_spender != address(0), \"BEP2E: approve to the zero address\");\n\n    allowances[_owner][_spender] = _amount;\n    emit Approval(_owner, _spender, _amount);\n  }\n\n  /**\n   * @dev Destroys `amount` tokens from `account`.`amount` is then deducted\n   * from the caller's allowance.\n   * @param _account address\n   * @param _amount uint \n   */\n  function _burnFrom(address _account, uint _amount) internal virtual {\n    _burn(_account, _amount);\n    _approve(_account, msg.sender, allowances[_account][msg.sender].sub(_amount));\n  }\n\n  /**\n  * @dev Hook that is called before any transfer of tokens. This includes\n  * minting and burning.\n  *\n  * Calling conditions:\n  *\n  * - when `from` and `to` are both non-zero, `amount` of ``from``'s tokens\n  * will be transferred to `to`.\n  * - when `from` is zero, `amount` tokens will be minted for `to`.\n  * - when `to` is zero, `amount` of ``from``'s tokens will be burned.\n  * - `from` and `to` are never both zero.\n  *\n  * To learn more about hooks, head to xref:ROOT:extending-contracts.adoc#using-hooks[Using Hooks].\n  */\n  function _beforeTokenTransfer(\n    address from,\n    address to,\n    uint256 amount\n  ) internal virtual {}\n\n\n  /**\n  * @dev Hook that is called after any transfer of tokens. This includes\n  * minting and burning.\n  *\n  * Calling conditions:\n  *\n  * - when `from` and `to` are both non-zero, `amount` of ``from``'s tokens\n  * has been transferred to `to`.\n  * - when `from` is zero, `amount` tokens have been minted for `to`.\n  * - when `to` is zero, `amount` of ``from``'s tokens have been burned.\n  * - `from` and `to` are never both zero.\n  *\n  * To learn more about hooks, head to xref:ROOT:extending-contracts.adoc#using-hooks[Using Hooks].\n  */\n  function _afterTokenTransfer(\n    address from,\n    address to,\n    uint256 amount\n  ) internal virtual {}  \n}\n",
  "sourcePath": "D:\\Dickens\\Programming\\Blockchain\\Projects\\JOBS\\BrnMeterverse\\contracts\\BrnMeterverse.sol",
  "compiler": {
    "name": "solc",
    "version": "0.8.11+commit.d7f03943.Emscripten.clang"
  },
  "schemaVersion": "3.4.1",
  "updatedAt": "2022-01-30T18:36:55.909Z",
  "devdoc": {
    "kind": "dev",
    "methods": {
      "allowance(address,address)": {
        "details": "both the owner and spender addresses should not be empty addresse address(0)",
        "params": {
          "_owner": "address the owner address",
          "_spender": "address the spender address"
        },
        "returns": {
          "_0": "uint, the amount approved for spending"
        }
      },
      "approve(address,uint256)": {
        "details": "the spender address should not be an empty address(0)the amount to be approved should not be less than the sender's balance",
        "params": {
          "_amount": "uint , the amount to approved by the token holder",
          "_spender": "address, the approved address"
        },
        "returns": {
          "_0": "bool true if success otherwise false"
        }
      },
      "balanceOf(address)": {
        "details": "the account should not be the zero address , address(0)",
        "params": {
          "_account": "account the address to which we want to determine their token balance"
        },
        "returns": {
          "_0": "uint the total balance of the specied address"
        }
      },
      "burn(address,uint256)": {
        "details": "Destroys amount tokens from account, reducing the total supply.account cannot be the zero address.account must have at least amount tokens.",
        "params": {
          "_account": "address",
          "_amount": "uint"
        },
        "returns": {
          "_0": "bool true if success otherwise false"
        }
      },
      "decimals()": {
        "returns": {
          "_0": "uint number of decimals"
        }
      },
      "decreaseAllowance(address,uint256)": {
        "details": "Atomically decreases the allowance granted to spender by the caller",
        "params": {
          "_spender": "address ",
          "_subtractedValue": "uint"
        },
        "returns": {
          "_0": "bool true if success otherwise false"
        }
      },
      "getOwner()": {
        "returns": {
          "_0": "address the owner address specified in the Ownable contract"
        }
      },
      "increaseAllowance(address,uint256)": {
        "details": "Atomically increases the allowance granted to `spender` by the caller.",
        "params": {
          "_addedValue": "uint ",
          "_spender": "address "
        },
        "returns": {
          "_0": "bool true if success otherwise false"
        }
      },
      "mint(uint256)": {
        "details": "Creates `amount` tokens and assigns them to `msg.sender`, increasing the total supply.",
        "params": {
          "_amount": "uint "
        },
        "returns": {
          "_0": "bool if success othwerise false"
        }
      },
      "name()": {
        "returns": {
          "_0": "string token name"
        }
      },
      "owner()": {
        "details": "Returns the address of the current owner."
      },
      "pause()": {
        "details": "Triggers stopped state. Requirements: - The contract must not be paused."
      },
      "paused()": {
        "details": "Returns true if the contract is paused, and false otherwise."
      },
      "renounceOwnership()": {
        "details": "Leaves the contract without owner. It will not be possible to call `onlyOwner` functions anymore. Can only be called by the current owner. NOTE: Renouncing ownership will leave the contract without an owner, thereby removing any functionality that is only available to the owner."
      },
      "symbol()": {
        "returns": {
          "_0": "string symbol. The Token Symbol"
        }
      },
      "totalSupply()": {
        "returns": {
          "_0": "uint total supply"
        }
      },
      "transfer(address,uint256)": {
        "details": "the recipient address should not be an empty address address(0)the sender's total balance must be equal to or greater than the amount specifiedthe nonReentrant modifier protects this function from reentrancy attacks",
        "params": {
          "_amount": "uint the amount of tokens to be sent to the specied address as the recepient",
          "_recipient": "address the person receiving the tokens"
        },
        "returns": {
          "_0": "bool success if the transfer was successfull otherwise false"
        }
      },
      "transferFrom(address,address,uint256)": {
        "details": "both the sender and recipient address should not be the empty address, address(0)the amount of tokens being moved from the sender to the recipient address should not be less than the sender's total balancesthe nonReentrant modifier protects this function from reentrancy attacks",
        "params": {
          "_amount": "uint",
          "_recipient": "address",
          "_sender": "address"
        },
        "returns": {
          "_0": "bool if the transfer event was successfull"
        }
      },
      "transferOwnership(address)": {
        "details": "Transfers ownership of the contract to a new account (`newOwner`). Can only be called by the current owner."
      },
      "unpause()": {
        "details": "Returns to normal state. Requirements: - The contract must be paused."
      }
    },
    "version": 1
  },
  "userdoc": {
    "kind": "user",
    "methods": {
      "allowance(address,address)": {
        "notice": "returns the amount that owner appoved as allowance for the spender"
      },
      "approve(address,uint256)": {
        "notice": "enables the token holder to add a new address than can spend the tokens on their behalf"
      },
      "balanceOf(address)": {
        "notice": "how much token balance does this address have"
      },
      "decimals()": {
        "notice": "the total number of decimals for the BRN token"
      },
      "getOwner()": {
        "notice": "should return the address of the contract owner"
      },
      "name()": {
        "notice": "token name"
      },
      "symbol()": {
        "notice": "token symbol"
      },
      "totalSupply()": {
        "notice": "the total token supply in circulation"
      },
      "transfer(address,uint256)": {
        "notice": "transfer a specicied amount pf tokens to a recipient address"
      },
      "transferFrom(address,address,uint256)": {
        "notice": "transfer the specidied amount of tokens from the sender address to the recipient address"
      }
    },
    "version": 1
  }
}