{
  "contractName": "BrnMeterversePreSale",
  "abi": [
    {
      "inputs": [
        {
          "internalType": "contract BrnMeterverse",
          "name": "_token",
          "type": "address"
        },
        {
          "internalType": "address",
          "name": "_partnershipFundAddress",
          "type": "address"
        },
        {
          "internalType": "address",
          "name": "_airdropFundAddress",
          "type": "address"
        },
        {
          "internalType": "address",
          "name": "_marketingFundAddress",
          "type": "address"
        },
        {
          "internalType": "address",
          "name": "_staffFundAddress",
          "type": "address"
        },
        {
          "internalType": "address",
          "name": "_burnFundAddress",
          "type": "address"
        },
        {
          "internalType": "address",
          "name": "_holdersFundAddress",
          "type": "address"
        }
      ],
      "stateMutability": "nonpayable",
      "type": "constructor"
    },
    {
      "anonymous": false,
      "inputs": [
        {
          "indexed": true,
          "internalType": "address",
          "name": "previousOwner",
          "type": "address"
        },
        {
          "indexed": true,
          "internalType": "address",
          "name": "newOwner",
          "type": "address"
        }
      ],
      "name": "OwnershipTransferred",
      "type": "event"
    },
    {
      "anonymous": false,
      "inputs": [
        {
          "indexed": false,
          "internalType": "address",
          "name": "account",
          "type": "address"
        }
      ],
      "name": "Paused",
      "type": "event"
    },
    {
      "anonymous": false,
      "inputs": [
        {
          "indexed": false,
          "internalType": "address",
          "name": "account",
          "type": "address"
        }
      ],
      "name": "Unpaused",
      "type": "event"
    },
    {
      "inputs": [],
      "name": "airdropPercentage",
      "outputs": [
        {
          "internalType": "uint256",
          "name": "",
          "type": "uint256"
        }
      ],
      "stateMutability": "view",
      "type": "function"
    },
    {
      "inputs": [],
      "name": "burnPercentage",
      "outputs": [
        {
          "internalType": "uint256",
          "name": "",
          "type": "uint256"
        }
      ],
      "stateMutability": "view",
      "type": "function"
    },
    {
      "inputs": [],
      "name": "holdersPercentage",
      "outputs": [
        {
          "internalType": "uint256",
          "name": "",
          "type": "uint256"
        }
      ],
      "stateMutability": "view",
      "type": "function"
    },
    {
      "inputs": [],
      "name": "icoPhase",
      "outputs": [
        {
          "internalType": "enum BrnMeterversePreSale.ICOPresalePhase",
          "name": "",
          "type": "uint8"
        }
      ],
      "stateMutability": "view",
      "type": "function"
    },
    {
      "inputs": [],
      "name": "marketingPercentage",
      "outputs": [
        {
          "internalType": "uint256",
          "name": "",
          "type": "uint256"
        }
      ],
      "stateMutability": "view",
      "type": "function"
    },
    {
      "inputs": [],
      "name": "owner",
      "outputs": [
        {
          "internalType": "address",
          "name": "",
          "type": "address"
        }
      ],
      "stateMutability": "view",
      "type": "function"
    },
    {
      "inputs": [],
      "name": "partnershipPercentage",
      "outputs": [
        {
          "internalType": "uint256",
          "name": "",
          "type": "uint256"
        }
      ],
      "stateMutability": "view",
      "type": "function"
    },
    {
      "inputs": [],
      "name": "paused",
      "outputs": [
        {
          "internalType": "bool",
          "name": "",
          "type": "bool"
        }
      ],
      "stateMutability": "view",
      "type": "function"
    },
    {
      "inputs": [],
      "name": "renounceOwnership",
      "outputs": [],
      "stateMutability": "nonpayable",
      "type": "function"
    },
    {
      "inputs": [],
      "name": "staffPercentage",
      "outputs": [
        {
          "internalType": "uint256",
          "name": "",
          "type": "uint256"
        }
      ],
      "stateMutability": "view",
      "type": "function"
    },
    {
      "inputs": [
        {
          "internalType": "address",
          "name": "newOwner",
          "type": "address"
        }
      ],
      "name": "transferOwnership",
      "outputs": [],
      "stateMutability": "nonpayable",
      "type": "function"
    },
    {
      "stateMutability": "payable",
      "type": "receive"
    },
    {
      "inputs": [
        {
          "internalType": "uint256",
          "name": "_phase",
          "type": "uint256"
        }
      ],
      "name": "setPreSalePhase",
      "outputs": [
        {
          "internalType": "bool",
          "name": "success",
          "type": "bool"
        }
      ],
      "stateMutability": "nonpayable",
      "type": "function"
    },
    {
      "inputs": [],
      "name": "buyToken",
      "outputs": [],
      "stateMutability": "payable",
      "type": "function"
    },
    {
      "inputs": [],
      "name": "finalize",
      "outputs": [],
      "stateMutability": "nonpayable",
      "type": "function"
    }
  ],
  "bytecode": "0x6101406040526000805460a860020a60ff0219169055600a6001819055600d60029081556032600355600f60045560059190915560065534801561004257600080fd5b5060405161097a38038061097a83398101604081905261006191610142565b6100836100756401000000006100d6810204565b6401000000006100da810204565b6000805460a060020a60ff0219169055600a8054600160a060020a031916600160a060020a0398891617905594861660805292851660a05290841660c052831660e05282166101005216610120526101de565b3390565b60008054600160a060020a03838116600160a060020a0319831681178455604051919092169283917f8be0079c531659141344cd1fd0a4f28419497f9722a3daafe3b4186f6b6457e09190a35050565b600160a060020a038116811461013f57600080fd5b50565b600080600080600080600060e0888a03121561015d57600080fd5b87516101688161012a565b60208901519097506101798161012a565b604089015190965061018a8161012a565b606089015190955061019b8161012a565b60808901519094506101ac8161012a565b60a08901519093506101bd8161012a565b60c08901519092506101ce8161012a565b8091505092959891949750929550565b60805160a05160c05160e051610100516101205161075f61021b60003960005050600050506000505060005050600050506000505061075f6000f3fe6080604052600436106100fe576000357c010000000000000000000000000000000000000000000000000000000090048063a48217191161009c578063de20308a11610076578063de20308a1461023c578063ece5524a14610252578063f01f20df14610268578063f2fde38b1461027e57600080fd5b8063a482171914610104578063a6a8fbff14610206578063d7ed55261461021c57600080fd5b80635c975abb116100d85780635c975abb1461015f57806368955fb11461019b578063715018a6146101c95780638da5cb5b146101de57600080fd5b80633475219d1461010b57806340d9da81146101345780634bb278f31461014a57600080fd5b36610106575b005b600080fd5b34801561011757600080fd5b5061012160065481565b6040519081526020015b60405180910390f35b34801561014057600080fd5b5061012160025481565b34801561015657600080fd5b506101046102a0565b34801561016b57600080fd5b5060005474010000000000000000000000000000000000000000900460ff165b604051901515815260200161012b565b3480156101a757600080fd5b506000546101bc9060a860020a900460ff1681565b60405161012b9190610636565b3480156101d557600080fd5b506101046102d6565b3480156101ea57600080fd5b50600054604051600160a060020a03909116815260200161012b565b34801561021257600080fd5b5061012160015481565b34801561022857600080fd5b5061018b610237366004610677565b61030d565b34801561024857600080fd5b5061012160035481565b34801561025e57600080fd5b5061012160045481565b34801561027457600080fd5b5061012160055481565b34801561028a57600080fd5b50610104610299366004610690565b6104df565b565b600054600160a060020a0316331461029e5760405160e560020a62461bcd0281526004016102cd906106b9565b60405180910390fd5b600054600160a060020a031633146103035760405160e560020a62461bcd0281526004016102cd906106b9565b61029e6000610597565b60008054600160a060020a0316331461033b5760405160e560020a62461bcd0281526004016102cd906106b9565b816103705760008054819075ff000000000000000000000000000000000000000000191660a860020a825b02179055506103e6565b81600114156103a557600080546001919075ff000000000000000000000000000000000000000000191660a860020a83610366565b81600214156103e6576000805475ff000000000000000000000000000000000000000000191675020000000000000000000000000000000000000000001790555b6000805460a860020a900460ff16600281111561040557610405610607565b141561043757600a6104188160646105f4565b600755506a05ca4ec2a79a7f6700000060085562ed4e006009556104d7565b600160005460a860020a900460ff16600281111561045757610457610607565b141561048957601461046a8160646105f4565b600755506a0ee3a5f48a68b552000000600855629e34006009556104d7565b600260005460a860020a900460ff1660028111156104a9576104a9610607565b14156104d757601e6104bc8160646105f4565b600755506a14adf4b7320334b9000000600855624f1a006009555b506001919050565b600054600160a060020a0316331461050c5760405160e560020a62461bcd0281526004016102cd906106b9565b600160a060020a03811661058b5760405160e560020a62461bcd02815260206004820152602660248201527f4f776e61626c653a206e6577206f776e657220697320746865207a65726f206160448201527f646472657373000000000000000000000000000000000000000000000000000060648201526084016102cd565b61059481610597565b50565b60008054600160a060020a0383811673ffffffffffffffffffffffffffffffffffffffff19831681178455604051919092169283917f8be0079c531659141344cd1fd0a4f28419497f9722a3daafe3b4186f6b6457e09190a35050565b600061060082846106ee565b9392505050565b7f4e487b7100000000000000000000000000000000000000000000000000000000600052602160045260246000fd5b6020810160038310610671577f4e487b7100000000000000000000000000000000000000000000000000000000600052602160045260246000fd5b91905290565b60006020828403121561068957600080fd5b5035919050565b6000602082840312156106a257600080fd5b8135600160a060020a038116811461060057600080fd5b6020808252818101527f4f776e61626c653a2063616c6c6572206973206e6f7420746865206f776e6572604082015260600190565b600082610724577f4e487b7100000000000000000000000000000000000000000000000000000000600052601260045260246000fd5b50049056fea26469706673582212209291d203185a31a1e61b2b7b23417d019867d9a762bbc1049b757ed35be7c9ec64736f6c634300080b0033",
  "immutableReferences": {},
  "source": "// SPDX-License-Identifier: MIT\npragma solidity ^0.8.0;\npragma abicoder v2;\n\nimport '@openzeppelin/contracts/token/ERC20/utils/TokenTimeLock.sol';\nimport '@openzeppelin/contracts/access/Ownable.sol';\nimport '@openzeppelin/contracts/access/AccessControl.sol';\nimport '@openzeppelin/contracts/finance/PaymentSplitter.sol';\nimport '@openzeppelin/contracts/finance/VestingWallet.sol';\nimport '@openzeppelin/contracts/utils/math/SafeMath.sol';\nimport '@openzeppelin/contracts/security/Pausable.sol';\nimport '@openzeppelin/contracts/security/PullPayment.sol';\nimport './BrnMeterverse.sol';\n\n/**\n* @title BrnMeterversePreSale\n* @dev A contract that manages the BRN Meterverse Presale logic\n*/\ncontract BrnMeterversePreSale is Ownable, Pausable {\n  using SafeMath for uint256;\n\n  //presale phases\n  enum ICOPresalePhase { Phase1, Phase2, Phase3 }\n\n  //set the default ICO phase\n  ICOPresalePhase public icoPhase = ICOPresalePhase.Phase1; //initial presale phase\n\n  //Token distributions\n  uint public partnershipPercentage = 10;\n  uint public airdropPercentage = 13;\n  uint public marketingPercentage = 50;\n  uint public staffPercentage = 15;\n  uint public burnPercentage = 10;\n  uint public holdersPercentage = 2;\n\n  //Wallet Addresses\n  address internal immutable partnershipFundAddress;\n  address internal immutable airdropFundAddress;\n  address internal immutable marketingFundAddress;\n  address internal immutable staffFundAddress;\n  address internal immutable burnFundAddress;\n  address internal immutable holdersFundAddress;\n\n  //Token rate based on the ico presale phase\n  uint internal icoPhaseRate;\n  uint internal icoPhaseAmount;\n  uint internal icoPhaseStakingPeriod;\n\n  //track the BRN Meterverse\n  BrnMeterverse internal token;\n\n  constructor(\n    BrnMeterverse _token,\n    address _partnershipFundAddress,\n    address _airdropFundAddress,\n    address _marketingFundAddress ,\n    address _staffFundAddress,\n    address _burnFundAddress,\n    address _holdersFundAddress \n  ) public {\n    token = _token;\n    partnershipFundAddress = _partnershipFundAddress;\n    airdropFundAddress = _airdropFundAddress;\n    marketingFundAddress = _marketingFundAddress;\n    staffFundAddress = _staffFundAddress;\n    burnFundAddress = _burnFundAddress;\n    holdersFundAddress = _holdersFundAddress;\n    //token = new BrnMeterverse();\n  }\n\n  /**\n  * @notice enables the contract owner to set the ICO presale phase for the contract\n  * @param _phase uint\n  * @return success \n  */\n  function setPreSalePhase(uint _phase) public onlyOwner returns(bool success){\n    if(uint(ICOPresalePhase.Phase1) == _phase){\n      icoPhase = ICOPresalePhase.Phase1;\n    }else if(uint(ICOPresalePhase.Phase2) == _phase){\n      icoPhase = ICOPresalePhase.Phase2;\n    }else if(uint(ICOPresalePhase.Phase3) == _phase){\n      icoPhase = ICOPresalePhase.Phase3;\n    }\n\n    if(icoPhase == ICOPresalePhase.Phase1 ){\n      uint phase1Rate = 10;\n      icoPhaseRate = phase1Rate.div(100); //set pricerate to 0.1 for the first phase of the presale\n      icoPhaseAmount = 7000000 * 10 ** 18; //set the token amount to 7000000 for the first phase of the presale\n      icoPhaseStakingPeriod = 30 days * 6; //the presale phase will run for 6 months\n    }else if(icoPhase == ICOPresalePhase.Phase2 ){\n      uint phase2Rate = 20;\n      icoPhaseRate = phase2Rate.div(100); //set pricerate to 0.2 for the second phase of the presale\n      icoPhaseAmount = 18000000 * 10 ** 18; //set the token amount to 18000000 for the second phase of the presale\n      icoPhaseStakingPeriod = 30 days * 4; //the presale phase will run for 4 months\n    }else if(icoPhase == ICOPresalePhase.Phase3){\n      uint phase3Rate = 30;\n      icoPhaseRate = phase3Rate.div(100); //set pricerate to 0.3 for the last phase of the presale\n      icoPhaseAmount = 25000000 * 10 ** 18; //set the token amount to 25000000 for the last phase of the presale\n      icoPhaseStakingPeriod = 30 days * 2; //the presale phase will run for 2 months\n    }\n    return true;\n  }\n\n  /**\n  * @dev enables a user to buy specied amount of token from the presale taking into consideration the cap and goal set\n  */\n  function buyToken() public payable{\n\n  }\n\n  receive() external payable {\n    buyToken();\n  }\n\n  /**\n  * @notice this is responsible for sending the tokens to the buyer while also sending ETH to the wallets\n  * only triggered by the contract owner once the ico phases are done\n  */\n  function finalize() public onlyOwner{\n\n  }\n}\n",
  "sourcePath": "D:/Dickens/Programming/Blockchain/Projects/JOBS/BrnMeterverse/contracts/BrnMeterversePreSale.sol",
  "compiler": {
    "name": "solc",
    "version": "0.8.11+commit.d7f03943.Emscripten.clang"
  },
  "schemaVersion": "3.4.1",
  "updatedAt": "2022-01-30T18:36:56.414Z",
  "devdoc": {
    "details": "A contract that manages the BRN Meterverse Presale logic",
    "kind": "dev",
    "methods": {
      "buyToken()": {
        "details": "enables a user to buy specied amount of token from the presale taking into consideration the cap and goal set"
      },
      "owner()": {
        "details": "Returns the address of the current owner."
      },
      "paused()": {
        "details": "Returns true if the contract is paused, and false otherwise."
      },
      "renounceOwnership()": {
        "details": "Leaves the contract without owner. It will not be possible to call `onlyOwner` functions anymore. Can only be called by the current owner. NOTE: Renouncing ownership will leave the contract without an owner, thereby removing any functionality that is only available to the owner."
      },
      "setPreSalePhase(uint256)": {
        "params": {
          "_phase": "uint"
        },
        "returns": {
          "success": ""
        }
      },
      "transferOwnership(address)": {
        "details": "Transfers ownership of the contract to a new account (`newOwner`). Can only be called by the current owner."
      }
    },
    "title": "BrnMeterversePreSale",
    "version": 1
  },
  "userdoc": {
    "kind": "user",
    "methods": {
      "finalize()": {
        "notice": "this is responsible for sending the tokens to the buyer while also sending ETH to the wallets only triggered by the contract owner once the ico phases are done"
      },
      "setPreSalePhase(uint256)": {
        "notice": "enables the contract owner to set the ICO presale phase for the contract"
      }
    },
    "version": 1
  }
}