{
  "contractName": "BrnMeterverse",
  "abi": [
    {
      "inputs": [],
      "stateMutability": "nonpayable",
      "type": "constructor"
    },
    {
      "anonymous": false,
      "inputs": [
        {
          "indexed": true,
          "internalType": "address",
          "name": "owner",
          "type": "address"
        },
        {
          "indexed": true,
          "internalType": "address",
          "name": "spender",
          "type": "address"
        },
        {
          "indexed": false,
          "internalType": "uint256",
          "name": "value",
          "type": "uint256"
        }
      ],
      "name": "Approval",
      "type": "event"
    },
    {
      "anonymous": false,
      "inputs": [
        {
          "indexed": true,
          "internalType": "address",
          "name": "previousOwner",
          "type": "address"
        },
        {
          "indexed": true,
          "internalType": "address",
          "name": "newOwner",
          "type": "address"
        }
      ],
      "name": "OwnershipTransferred",
      "type": "event"
    },
    {
      "anonymous": false,
      "inputs": [
        {
          "indexed": true,
          "internalType": "address",
          "name": "from",
          "type": "address"
        },
        {
          "indexed": true,
          "internalType": "address",
          "name": "to",
          "type": "address"
        },
        {
          "indexed": false,
          "internalType": "uint256",
          "name": "value",
          "type": "uint256"
        }
      ],
      "name": "Transfer",
      "type": "event"
    },
    {
      "inputs": [],
      "name": "_decimals",
      "outputs": [
        {
          "internalType": "uint256",
          "name": "",
          "type": "uint256"
        }
      ],
      "stateMutability": "view",
      "type": "function"
    },
    {
      "inputs": [],
      "name": "_name",
      "outputs": [
        {
          "internalType": "string",
          "name": "",
          "type": "string"
        }
      ],
      "stateMutability": "view",
      "type": "function"
    },
    {
      "inputs": [],
      "name": "_symbol",
      "outputs": [
        {
          "internalType": "string",
          "name": "",
          "type": "string"
        }
      ],
      "stateMutability": "view",
      "type": "function"
    },
    {
      "inputs": [],
      "name": "owner",
      "outputs": [
        {
          "internalType": "address",
          "name": "",
          "type": "address"
        }
      ],
      "stateMutability": "view",
      "type": "function"
    },
    {
      "inputs": [],
      "name": "renounceOwnership",
      "outputs": [],
      "stateMutability": "nonpayable",
      "type": "function"
    },
    {
      "inputs": [
        {
          "internalType": "address",
          "name": "newOwner",
          "type": "address"
        }
      ],
      "name": "transferOwnership",
      "outputs": [],
      "stateMutability": "nonpayable",
      "type": "function"
    },
    {
      "inputs": [],
      "name": "name",
      "outputs": [
        {
          "internalType": "string",
          "name": "",
          "type": "string"
        }
      ],
      "stateMutability": "view",
      "type": "function"
    },
    {
      "inputs": [],
      "name": "symbol",
      "outputs": [
        {
          "internalType": "string",
          "name": "",
          "type": "string"
        }
      ],
      "stateMutability": "view",
      "type": "function"
    },
    {
      "inputs": [],
      "name": "decimals",
      "outputs": [
        {
          "internalType": "uint256",
          "name": "",
          "type": "uint256"
        }
      ],
      "stateMutability": "view",
      "type": "function"
    },
    {
      "inputs": [],
      "name": "totalSupply",
      "outputs": [
        {
          "internalType": "uint256",
          "name": "",
          "type": "uint256"
        }
      ],
      "stateMutability": "view",
      "type": "function"
    },
    {
      "inputs": [],
      "name": "getOwner",
      "outputs": [
        {
          "internalType": "address",
          "name": "",
          "type": "address"
        }
      ],
      "stateMutability": "view",
      "type": "function"
    },
    {
      "inputs": [
        {
          "internalType": "address",
          "name": "account",
          "type": "address"
        }
      ],
      "name": "balanceOf",
      "outputs": [
        {
          "internalType": "uint256",
          "name": "",
          "type": "uint256"
        }
      ],
      "stateMutability": "view",
      "type": "function"
    },
    {
      "inputs": [
        {
          "internalType": "address",
          "name": "_recipient",
          "type": "address"
        },
        {
          "internalType": "uint256",
          "name": "_amount",
          "type": "uint256"
        }
      ],
      "name": "transfer",
      "outputs": [
        {
          "internalType": "bool",
          "name": "",
          "type": "bool"
        }
      ],
      "stateMutability": "nonpayable",
      "type": "function"
    },
    {
      "inputs": [
        {
          "internalType": "address",
          "name": "_sender",
          "type": "address"
        },
        {
          "internalType": "address",
          "name": "_recipient",
          "type": "address"
        },
        {
          "internalType": "uint256",
          "name": "_amount",
          "type": "uint256"
        }
      ],
      "name": "transferFrom",
      "outputs": [
        {
          "internalType": "bool",
          "name": "",
          "type": "bool"
        }
      ],
      "stateMutability": "nonpayable",
      "type": "function"
    },
    {
      "inputs": [
        {
          "internalType": "address",
          "name": "_owner",
          "type": "address"
        },
        {
          "internalType": "address",
          "name": "_spender",
          "type": "address"
        }
      ],
      "name": "allowance",
      "outputs": [
        {
          "internalType": "uint256",
          "name": "",
          "type": "uint256"
        }
      ],
      "stateMutability": "view",
      "type": "function"
    },
    {
      "inputs": [
        {
          "internalType": "address",
          "name": "_spender",
          "type": "address"
        },
        {
          "internalType": "uint256",
          "name": "_amount",
          "type": "uint256"
        }
      ],
      "name": "approve",
      "outputs": [
        {
          "internalType": "bool",
          "name": "",
          "type": "bool"
        }
      ],
      "stateMutability": "nonpayable",
      "type": "function"
    },
    {
      "inputs": [],
      "name": "withdraw",
      "outputs": [],
      "stateMutability": "nonpayable",
      "type": "function"
    },
    {
      "inputs": [
        {
          "internalType": "address",
          "name": "_spender",
          "type": "address"
        },
        {
          "internalType": "uint256",
          "name": "_addedValue",
          "type": "uint256"
        }
      ],
      "name": "increaseAllowance",
      "outputs": [
        {
          "internalType": "bool",
          "name": "",
          "type": "bool"
        }
      ],
      "stateMutability": "nonpayable",
      "type": "function"
    },
    {
      "inputs": [
        {
          "internalType": "address",
          "name": "_spender",
          "type": "address"
        },
        {
          "internalType": "uint256",
          "name": "_subtractedValue",
          "type": "uint256"
        }
      ],
      "name": "decreaseAllowance",
      "outputs": [
        {
          "internalType": "bool",
          "name": "",
          "type": "bool"
        }
      ],
      "stateMutability": "nonpayable",
      "type": "function"
    },
    {
      "inputs": [
        {
          "internalType": "uint256",
          "name": "_amount",
          "type": "uint256"
        }
      ],
      "name": "mint",
      "outputs": [
        {
          "internalType": "bool",
          "name": "",
          "type": "bool"
        }
      ],
      "stateMutability": "nonpayable",
      "type": "function"
    }
  ],
  "bytecode": "0x60806040523480156200001157600080fd5b50620000386200002964010000000062000151810204565b64010000000062000155810204565b60408051808201909152600d8082527f42726e204d65746176657273650000000000000000000000000000000000000060209092019182526200007e91600191620001ba565b506040805180820190915260038082527f42524e00000000000000000000000000000000000000000000000000000000006020909201918252620000c591600291620001ba565b506012600455633b9aca00600381905533600090815260056020526040902054620000fe916401000000006200069b620001a582021704565b336000818152600560209081526040808320949094556003549351938452919290917fddf252ad1be2c89b69c2b068fc378daa952ba7f163c4a11628f55a4df523b3ef910160405180910390a3620002f6565b3390565b60008054600160a060020a03838116600160a060020a0319831681178455604051919092169283917f8be0079c531659141344cd1fd0a4f28419497f9722a3daafe3b4186f6b6457e09190a35050565b6000620001b3828462000260565b9392505050565b828054620001c890620002a0565b90600052602060002090601f016020900481019282620001ec576000855562000237565b82601f106200020757805160ff191683800117855562000237565b8280016001018555821562000237579182015b82811115620002375782518255916020019190600101906200021a565b506200024592915062000249565b5090565b5b808211156200024557600081556001016200024a565b600082198211156200029b577f4e487b7100000000000000000000000000000000000000000000000000000000600052601160045260246000fd5b500190565b600281046001821680620002b557607f821691505b60208210811415620002f0577f4e487b7100000000000000000000000000000000000000000000000000000000600052602260045260246000fd5b50919050565b610dea80620003066000396000f3fe608060405234801561001057600080fd5b5060043610610149576000357c010000000000000000000000000000000000000000000000000000000090048063893d20e8116100ca578063a9059cbb1161008e578063a9059cbb14610277578063b09f12661461028a578063d28d885214610292578063dd62ed3e1461029a578063f2fde38b146102d357600080fd5b8063893d20e8146102135780638da5cb5b1461023857806395d89b4114610249578063a0712d6814610251578063a457c2d71461026457600080fd5b806332424aa31161011157806332424aa3146101bc57806339509351146101c55780633ccfd60b146101d857806370a08231146101e2578063715018a61461020b57600080fd5b806306fdde031461014e578063095ea7b31461016c57806318160ddd1461018f57806323b872dd146101a1578063313ce567146101b4575b600080fd5b6101566102e6565b6040516101639190610b40565b60405180910390f35b61017f61017a366004610bac565b610378565b6040519015158152602001610163565b6003545b604051908152602001610163565b61017f6101af366004610bd6565b61038e565b600454610193565b61019360045481565b61017f6101d3366004610bac565b6103f7565b6101e061042d565b005b6101936101f0366004610c12565b600160a060020a031660009081526005602052604090205490565b6101e0610465565b600054600160a060020a03165b604051600160a060020a039091168152602001610163565b600054600160a060020a0316610220565b61015661049c565b61017f61025f366004610c2d565b6104ab565b61017f610272366004610bac565b6104ec565b61017f610285366004610bac565b61053b565b610156610548565b6101566105d6565b6101936102a8366004610c46565b600160a060020a03918216600090815260066020908152604080832093909416825291909152205490565b6101e06102e1366004610c12565b6105e3565b6060600180546102f590610c79565b80601f016020809104026020016040519081016040528092919081815260200182805461032190610c79565b801561036e5780601f106103435761010080835404028352916020019161036e565b820191906000526020600020905b81548152906001019060200180831161035157829003601f168201915b5050505050905090565b60006103853384846106ae565b50600192915050565b600061039b84848461080d565b6103ed84336103e885604051806060016040528060288152602001610d6760289139600160a060020a038a16600090815260066020908152604080832033845290915290205491906109cb565b6106ae565b5060019392505050565b336000818152600660209081526040808320600160a060020a038716845290915281205490916103859185906103e8908661069b565b600054600160a060020a031633146104635760405160e560020a62461bcd02815260040161045a90610ccd565b60405180910390fd5b565b600054600160a060020a031633146104925760405160e560020a62461bcd02815260040161045a90610ccd565b61046360006109fa565b6060600280546102f590610c79565b60008054600160a060020a031633146104d95760405160e560020a62461bcd02815260040161045a90610ccd565b6104e33383610a57565b5060015b919050565b600061038533846103e885604051806060016040528060258152602001610d4260259139336000908152600660209081526040808320600160a060020a038d16845290915290205491906109cb565b600061038533848461080d565b6002805461055590610c79565b80601f016020809104026020016040519081016040528092919081815260200182805461058190610c79565b80156105ce5780601f106105a3576101008083540402835291602001916105ce565b820191906000526020600020905b8154815290600101906020018083116105b157829003601f168201915b505050505081565b6001805461055590610c79565b600054600160a060020a031633146106105760405160e560020a62461bcd02815260040161045a90610ccd565b600160a060020a03811661068f5760405160e560020a62461bcd02815260206004820152602660248201527f4f776e61626c653a206e6577206f776e657220697320746865207a65726f206160448201527f6464726573730000000000000000000000000000000000000000000000000000606482015260840161045a565b610698816109fa565b50565b60006106a78284610d02565b9392505050565b600160a060020a03831661072c5760405160e560020a62461bcd028152602060048201526024808201527f42455032453a20617070726f76652066726f6d20746865207a65726f2061646460448201527f7265737300000000000000000000000000000000000000000000000000000000606482015260840161045a565b600160a060020a0382166107ab5760405160e560020a62461bcd02815260206004820152602260248201527f42455032453a20617070726f766520746f20746865207a65726f20616464726560448201527f7373000000000000000000000000000000000000000000000000000000000000606482015260840161045a565b600160a060020a0383811660008181526006602090815260408083209487168084529482529182902085905590518481527f8c5be1e5ebec7d5bd14f71427d1e84f3dd0314c0f7b2291e5b200ac8c7c3b92591015b60405180910390a3505050565b600160a060020a03831661088c5760405160e560020a62461bcd02815260206004820152602560248201527f42455032453a207472616e736665722066726f6d20746865207a65726f20616460448201527f6472657373000000000000000000000000000000000000000000000000000000606482015260840161045a565b600160a060020a03821661090b5760405160e560020a62461bcd02815260206004820152602360248201527f42455032453a207472616e7366657220746f20746865207a65726f206164647260448201527f6573730000000000000000000000000000000000000000000000000000000000606482015260840161045a565b61094881604051806060016040528060268152602001610d8f60269139600160a060020a03861660009081526005602052604090205491906109cb565b600160a060020a038085166000908152600560205260408082209390935590841681522054610977908261069b565b600160a060020a0380841660008181526005602052604090819020939093559151908516907fddf252ad1be2c89b69c2b068fc378daa952ba7f163c4a11628f55a4df523b3ef906108009085815260200190565b600081848411156109f25760405160e560020a62461bcd02815260040161045a9190610b40565b505050900390565b60008054600160a060020a0383811673ffffffffffffffffffffffffffffffffffffffff19831681178455604051919092169283917f8be0079c531659141344cd1fd0a4f28419497f9722a3daafe3b4186f6b6457e09190a35050565b600160a060020a038216610ab05760405160e560020a62461bcd02815260206004820152601f60248201527f42455032453a206d696e7420746f20746865207a65726f206164647265737300604482015260640161045a565b600354610abd908261069b565b600355600160a060020a038216600090815260056020526040902054610ae3908261069b565b600160a060020a0383166000818152600560205260408082209390935591519091907fddf252ad1be2c89b69c2b068fc378daa952ba7f163c4a11628f55a4df523b3ef90610b349085815260200190565b60405180910390a35050565b600060208083528351808285015260005b81811015610b6d57858101830151858201604001528201610b51565b81811115610b7f576000604083870101525b50601f01601f1916929092016040019392505050565b8035600160a060020a03811681146104e757600080fd5b60008060408385031215610bbf57600080fd5b610bc883610b95565b946020939093013593505050565b600080600060608486031215610beb57600080fd5b610bf484610b95565b9250610c0260208501610b95565b9150604084013590509250925092565b600060208284031215610c2457600080fd5b6106a782610b95565b600060208284031215610c3f57600080fd5b5035919050565b60008060408385031215610c5957600080fd5b610c6283610b95565b9150610c7060208401610b95565b90509250929050565b600281046001821680610c8d57607f821691505b60208210811415610cc7577f4e487b7100000000000000000000000000000000000000000000000000000000600052602260045260246000fd5b50919050565b6020808252818101527f4f776e61626c653a2063616c6c6572206973206e6f7420746865206f776e6572604082015260600190565b60008219821115610d3c577f4e487b7100000000000000000000000000000000000000000000000000000000600052601160045260246000fd5b50019056fe42455032453a2064656372656173656420616c6c6f77616e63652062656c6f77207a65726f42455032453a207472616e7366657220616d6f756e74206578636565647320616c6c6f77616e636542455032453a207472616e7366657220616d6f756e7420657863656564732062616c616e6365a2646970667358221220749319147e54df8c20958fef0641407e1dc80c283c5fa198f1ab433aca52fb6864736f6c634300080b0033",
  "immutableReferences": {},
  "source": "// SPDX-License-Identifier: MIT\npragma solidity ^0.8.0;\npragma abicoder v2;\n\nimport '@openzeppelin/contracts/access/Ownable.sol';\nimport '@openzeppelin/contracts/utils/math/SafeMath.sol';\nimport '@openzeppelin/contracts/security/ReentrancyGuard.sol';\nimport './interfaces/IBEP2E.sol';\n\n//TODO - Inherit from ReentrancyGuard\ncontract BrnMeterverse is Ownable, IBEP2E  {\n  using SafeMath for uint256;\n\n  string public _name; //token name\n  string public _symbol; //token symbol \n  uint private _totalSupply; //total supply\n  uint public _decimals; //the total number of decimal represenations\n\n  mapping(address => uint) private balances; //how token much does this address have\n  mapping(address => mapping(address => uint)) private allowances; //the amount approved by the owner to be spent on their behalf\n\n  constructor() public {\n    _name = \"Brn Metaverse\";\n    _symbol = \"BRN\";\n    _decimals = 18;\n    _totalSupply = 1000000000;\n    balances[msg.sender] = balances[msg.sender].add(_totalSupply);\n    emit Transfer(address(0), msg.sender, _totalSupply);\n  }\n\n  /**\n  * @notice token name\n  * @return string token name\n  */\n  function name() public view override returns(string memory){\n    return _name;\n  }\n\n  /** \n  * @notice token symbol\n  * @return string symbol. The Token Symbol\n  */\n  function symbol() public view override returns(string memory){\n    return _symbol;\n  }\n\n  /**\n  * @notice the total number of decimals for the BRN token\n  * @return uint number of decimals\n  */\n  function decimals() public view override returns(uint){\n    return _decimals;\n  }\n\n  /**\n  * @notice the total token supply in circulation\n  * @return uint total supply\n  */\n  function totalSupply() public view override returns(uint){\n    return _totalSupply;\n  }\n\n  /**\n  * @notice should return the address of the contract owner\n  * @return address the owner address specified in the Ownable contract\n  */\n  function getOwner() public view override returns (address){\n    return owner();\n  }\n  \n  /**\n  * @notice how much token balance does this address have\n  * @dev the account should not be the zero address , address(0)\n  * @param account account the address to which we want to determine their token balance\n  * @return uint the total balance of the specied address\n  */\n  function balanceOf(address account) public view override returns (uint256){\n    return balances[account];\n  }\n\n  /**\n  * @notice transfer a specicied amount pf tokens to a recipient address\n  * @dev the recipient address should not be an empty address address(0)\n  * @dev the sender's total balance must be equal to or greater than the amount specified\n  * @dev the nonReentrant modifier protects this function from reentrancy attacks\n  * @param _recipient address the person receiving the tokens\n  * @param _amount uint the amount of tokens to be sent to the specied address as the recepient\n  * @return bool success if the transfer was successfull otherwise false\n  */\n  function transfer(address _recipient, uint _amount) public override returns (bool){ //nonReentrant\n      _transfer(msg.sender, _recipient, _amount);\n      return true;\n  }\n\n  /**\n  * @notice transfer the specidied amount of tokens from the sender address to the recipient address\n  * @dev both the sender and recipient address should not be the empty address, address(0)\n  * @dev the amount of tokens being moved from the sender to the recipient address should \n  * @dev not be less than the sender's total balances\n  * @dev the nonReentrant modifier protects this function from reentrancy attacks\n  * @param _sender address\n  * @param _recipient address\n  * @param _amount uint\n  * @return true if the transfer event was successfull\n  */\n  function transferFrom(address _sender, address _recipient, uint _amount) external returns (bool) {\n    _transfer(_sender, _recipient, _amount);\n    _approve(_sender, _msgSender(), allowances[_sender][msg.sender].sub(_amount, \"BEP2E: transfer amount exceeds allowance\"));\n    return true;\n  }\n\n  /**\n  * @notice returns the amount that owner appoved as allowance for the spender\n  * @dev both the owner and spender addresses should not be empty addresse address(0)\n  * @param _owner address the owner address\n  * @param _spender address the spender address\n  * @return uint, the amount approved for spending\n  */\n  function allowance(address _owner, address _spender) public view returns (uint256) {\n    return allowances[_owner][_spender];\n  }\n\n  /**\n  * @notice enables the token holder to add a new address than can spend the tokens on their behalf\n  * @dev the spender address should not be an empty address(0)\n  * @dev the amount to be approved should not be less than the sender's balance\n  * @param _spender address, the approved address\n  * @param _amount uint , the amount to approved by the token holder\n  * @return bool true if success otherwise false\n  */\n  function approve(address _spender, uint _amount) public returns (bool) {\n    _approve(msg.sender, _spender, _amount);\n    return true;\n  }\n\n  function withdraw() public onlyOwner { //nonReentrant\n\n  }\n\n  /**\n   * @dev Atomically increases the allowance granted to `spender` by the caller.\n   * @param _spender address \n   * @param _addedValue uint \n   * @return bool true if success otherwise false\n   */\n  function increaseAllowance(address _spender, uint _addedValue) public returns (bool) {\n    _approve(msg.sender, _spender, allowances[msg.sender][_spender].add(_addedValue));\n    return true;\n  }\n\n  /**\n   * @dev Atomically decreases the allowance granted to spender by the caller\n   * @param _spender address \n   * @param _subtractedValue uint\n   * @return bool true if success otherwise false\n   */\n  function decreaseAllowance(address _spender, uint _subtractedValue) public returns (bool) {\n    _approve(msg.sender, _spender, allowances[msg.sender][_spender].sub(_subtractedValue, \"BEP2E: decreased allowance below zero\"));\n    return true;\n  }\n\n  /**\n   * @dev Creates `amount` tokens and assigns them to `msg.sender`, increasing\n   * the total supply.\n   * @param _amount uint \n   * @return bool if success othwerise false\n   */\n  function mint(uint _amount) public onlyOwner returns (bool) {\n    _mint(msg.sender, _amount);\n    return true;\n  }\n\n  /**\n  * -- INTERNAL FUNCTIONS -- \n  */\n\n  /**\n   * @dev Moves tokens amount from sender to recipient.\n   * @dev _sender cannot be the zero address.\n   * @dev recipient cannot be the zero address.\n   * @dev sender must have a balance of at least amount\n   * @param _sender address thes account sending the tokens amount\n   * @param _recipient address the account receiving the tokens\n   * @param _amount uint the token amount to be sent\n   */\n  function _transfer(address _sender, address _recipient, uint _amount) internal {\n    require(_sender != address(0), \"BEP2E: transfer from the zero address\");\n    require(_recipient != address(0), \"BEP2E: transfer to the zero address\");\n\n    balances[_sender] = balances[_sender].sub(_amount, \"BEP2E: transfer amount exceeds balance\");\n    balances[_recipient] = balances[_recipient].add(_amount);\n    emit Transfer(_sender, _recipient, _amount);\n  }\n\n  /** @dev Creates amount tokens and assigns them to account, increasing\n   * the total supply.\n   * @dev to cannot be the zero address.\n   * @param _account address \n   * @param _amount uint \n   */\n  function _mint(address _account, uint _amount) internal {\n    require(_account != address(0), \"BEP2E: mint to the zero address\");\n\n    _totalSupply = _totalSupply.add(_amount);\n    balances[_account] = balances[_account].add(_amount);\n    emit Transfer(address(0), _account, _amount);\n  }\n\n  /**\n   * @dev Sets amount as the allowance of spender over the owner`s tokens.\n   * @dev owner cannot be the zero address.\n   * @dev spender cannot be the zero address.\n   * @param _owner address\n   * @param _spender address\n   * @param _amount uint  \n   */\n  function _approve(address _owner, address _spender, uint _amount) internal {\n    require(_owner != address(0), \"BEP2E: approve from the zero address\");\n    require(_spender != address(0), \"BEP2E: approve to the zero address\");\n\n    allowances[_owner][_spender] = _amount;\n    emit Approval(_owner, _spender, _amount);\n  }\n\n  /**\n   * @dev Destroys amount tokens from account, reducing the\n   * total supply.\n   * @dev account cannot be the zero address.\n   * @dev account must have at least amount tokens.\n   * @param _account address\n   * @param _amount uint \n   */\n  function _burn(address _account, uint _amount) internal {\n    require(_account != address(0), \"BEP2E: burn from the zero address\");\n\n    balances[_account] = balances[_account].sub(_amount, \"BEP2E: burn amount exceeds balance\");\n    _totalSupply = _totalSupply.sub(_amount);\n    emit Transfer(_account, address(0), _amount);\n  }\n\n  /**\n   * @dev Destroys `amount` tokens from `account`.`amount` is then deducted\n   * from the caller's allowance.\n   * @param _account address\n   * @param _amount uint \n   */\n  function _burnFrom(address _account, uint _amount) internal {\n    _burn(_account, _amount);\n    _approve(_account, msg.sender, allowances[_account][msg.sender].sub(_amount, \"BEP2E: burn amount exceeds allowance\"));\n  }\n}\n",
  "sourcePath": "D:/Dickens/Programming/Blockchain/Projects/JOBS/BrnMeterverse/contracts/BrnMeterverse.sol",
  "compiler": {
    "name": "solc",
    "version": "0.8.11+commit.d7f03943.Emscripten.clang"
  },
  "schemaVersion": "3.4.1",
  "updatedAt": "2022-01-29T00:14:25.156Z",
  "devdoc": {
    "kind": "dev",
    "methods": {
      "allowance(address,address)": {
        "details": "both the owner and spender addresses should not be empty addresse address(0)",
        "params": {
          "_owner": "address the owner address",
          "_spender": "address the spender address"
        },
        "returns": {
          "_0": "uint, the amount approved for spending"
        }
      },
      "approve(address,uint256)": {
        "details": "the spender address should not be an empty address(0)the amount to be approved should not be less than the sender's balance",
        "params": {
          "_amount": "uint , the amount to approved by the token holder",
          "_spender": "address, the approved address"
        },
        "returns": {
          "_0": "bool true if success otherwise false"
        }
      },
      "balanceOf(address)": {
        "details": "the account should not be the zero address , address(0)",
        "params": {
          "account": "account the address to which we want to determine their token balance"
        },
        "returns": {
          "_0": "uint the total balance of the specied address"
        }
      },
      "decimals()": {
        "returns": {
          "_0": "uint number of decimals"
        }
      },
      "decreaseAllowance(address,uint256)": {
        "details": "Atomically decreases the allowance granted to spender by the caller",
        "params": {
          "_spender": "address ",
          "_subtractedValue": "uint"
        },
        "returns": {
          "_0": "bool true if success otherwise false"
        }
      },
      "getOwner()": {
        "returns": {
          "_0": "address the owner address specified in the Ownable contract"
        }
      },
      "increaseAllowance(address,uint256)": {
        "details": "Atomically increases the allowance granted to `spender` by the caller.",
        "params": {
          "_addedValue": "uint ",
          "_spender": "address "
        },
        "returns": {
          "_0": "bool true if success otherwise false"
        }
      },
      "mint(uint256)": {
        "details": "Creates `amount` tokens and assigns them to `msg.sender`, increasing the total supply.",
        "params": {
          "_amount": "uint "
        },
        "returns": {
          "_0": "bool if success othwerise false"
        }
      },
      "name()": {
        "returns": {
          "_0": "string token name"
        }
      },
      "owner()": {
        "details": "Returns the address of the current owner."
      },
      "renounceOwnership()": {
        "details": "Leaves the contract without owner. It will not be possible to call `onlyOwner` functions anymore. Can only be called by the current owner. NOTE: Renouncing ownership will leave the contract without an owner, thereby removing any functionality that is only available to the owner."
      },
      "symbol()": {
        "returns": {
          "_0": "string symbol. The Token Symbol"
        }
      },
      "totalSupply()": {
        "returns": {
          "_0": "uint total supply"
        }
      },
      "transfer(address,uint256)": {
        "details": "the recipient address should not be an empty address address(0)the sender's total balance must be equal to or greater than the amount specifiedthe nonReentrant modifier protects this function from reentrancy attacks",
        "params": {
          "_amount": "uint the amount of tokens to be sent to the specied address as the recepient",
          "_recipient": "address the person receiving the tokens"
        },
        "returns": {
          "_0": "bool success if the transfer was successfull otherwise false"
        }
      },
      "transferFrom(address,address,uint256)": {
        "details": "both the sender and recipient address should not be the empty address, address(0)the amount of tokens being moved from the sender to the recipient address should not be less than the sender's total balancesthe nonReentrant modifier protects this function from reentrancy attacks",
        "params": {
          "_amount": "uint",
          "_recipient": "address",
          "_sender": "address"
        },
        "returns": {
          "_0": "true if the transfer event was successfull"
        }
      },
      "transferOwnership(address)": {
        "details": "Transfers ownership of the contract to a new account (`newOwner`). Can only be called by the current owner."
      }
    },
    "version": 1
  },
  "userdoc": {
    "kind": "user",
    "methods": {
      "allowance(address,address)": {
        "notice": "returns the amount that owner appoved as allowance for the spender"
      },
      "approve(address,uint256)": {
        "notice": "enables the token holder to add a new address than can spend the tokens on their behalf"
      },
      "balanceOf(address)": {
        "notice": "how much token balance does this address have"
      },
      "decimals()": {
        "notice": "the total number of decimals for the BRN token"
      },
      "getOwner()": {
        "notice": "should return the address of the contract owner"
      },
      "name()": {
        "notice": "token name"
      },
      "symbol()": {
        "notice": "token symbol"
      },
      "totalSupply()": {
        "notice": "the total token supply in circulation"
      },
      "transfer(address,uint256)": {
        "notice": "transfer a specicied amount pf tokens to a recipient address"
      },
      "transferFrom(address,address,uint256)": {
        "notice": "transfer the specidied amount of tokens from the sender address to the recipient address"
      }
    },
    "version": 1
  }
}