{
  "contractName": "BrnMeterversePreSale",
  "abi": [
    {
      "inputs": [],
      "stateMutability": "nonpayable",
      "type": "constructor"
    },
    {
      "anonymous": false,
      "inputs": [
        {
          "indexed": true,
          "internalType": "address",
          "name": "previousOwner",
          "type": "address"
        },
        {
          "indexed": true,
          "internalType": "address",
          "name": "newOwner",
          "type": "address"
        }
      ],
      "name": "OwnershipTransferred",
      "type": "event"
    },
    {
      "anonymous": false,
      "inputs": [
        {
          "indexed": true,
          "internalType": "bytes32",
          "name": "role",
          "type": "bytes32"
        },
        {
          "indexed": true,
          "internalType": "bytes32",
          "name": "previousAdminRole",
          "type": "bytes32"
        },
        {
          "indexed": true,
          "internalType": "bytes32",
          "name": "newAdminRole",
          "type": "bytes32"
        }
      ],
      "name": "RoleAdminChanged",
      "type": "event"
    },
    {
      "anonymous": false,
      "inputs": [
        {
          "indexed": true,
          "internalType": "bytes32",
          "name": "role",
          "type": "bytes32"
        },
        {
          "indexed": true,
          "internalType": "address",
          "name": "account",
          "type": "address"
        },
        {
          "indexed": true,
          "internalType": "address",
          "name": "sender",
          "type": "address"
        }
      ],
      "name": "RoleGranted",
      "type": "event"
    },
    {
      "anonymous": false,
      "inputs": [
        {
          "indexed": true,
          "internalType": "bytes32",
          "name": "role",
          "type": "bytes32"
        },
        {
          "indexed": true,
          "internalType": "address",
          "name": "account",
          "type": "address"
        },
        {
          "indexed": true,
          "internalType": "address",
          "name": "sender",
          "type": "address"
        }
      ],
      "name": "RoleRevoked",
      "type": "event"
    },
    {
      "inputs": [],
      "name": "DEFAULT_ADMIN_ROLE",
      "outputs": [
        {
          "internalType": "bytes32",
          "name": "",
          "type": "bytes32"
        }
      ],
      "stateMutability": "view",
      "type": "function"
    },
    {
      "inputs": [
        {
          "internalType": "bytes32",
          "name": "role",
          "type": "bytes32"
        }
      ],
      "name": "getRoleAdmin",
      "outputs": [
        {
          "internalType": "bytes32",
          "name": "",
          "type": "bytes32"
        }
      ],
      "stateMutability": "view",
      "type": "function"
    },
    {
      "inputs": [
        {
          "internalType": "bytes32",
          "name": "role",
          "type": "bytes32"
        },
        {
          "internalType": "address",
          "name": "account",
          "type": "address"
        }
      ],
      "name": "grantRole",
      "outputs": [],
      "stateMutability": "nonpayable",
      "type": "function"
    },
    {
      "inputs": [
        {
          "internalType": "bytes32",
          "name": "role",
          "type": "bytes32"
        },
        {
          "internalType": "address",
          "name": "account",
          "type": "address"
        }
      ],
      "name": "hasRole",
      "outputs": [
        {
          "internalType": "bool",
          "name": "",
          "type": "bool"
        }
      ],
      "stateMutability": "view",
      "type": "function"
    },
    {
      "inputs": [],
      "name": "icoPhase",
      "outputs": [
        {
          "internalType": "enum BrnMeterversePreSale.ICOPresalePhase",
          "name": "",
          "type": "uint8"
        }
      ],
      "stateMutability": "view",
      "type": "function"
    },
    {
      "inputs": [],
      "name": "owner",
      "outputs": [
        {
          "internalType": "address",
          "name": "",
          "type": "address"
        }
      ],
      "stateMutability": "view",
      "type": "function"
    },
    {
      "inputs": [],
      "name": "renounceOwnership",
      "outputs": [],
      "stateMutability": "nonpayable",
      "type": "function"
    },
    {
      "inputs": [
        {
          "internalType": "bytes32",
          "name": "role",
          "type": "bytes32"
        },
        {
          "internalType": "address",
          "name": "account",
          "type": "address"
        }
      ],
      "name": "renounceRole",
      "outputs": [],
      "stateMutability": "nonpayable",
      "type": "function"
    },
    {
      "inputs": [
        {
          "internalType": "bytes32",
          "name": "role",
          "type": "bytes32"
        },
        {
          "internalType": "address",
          "name": "account",
          "type": "address"
        }
      ],
      "name": "revokeRole",
      "outputs": [],
      "stateMutability": "nonpayable",
      "type": "function"
    },
    {
      "inputs": [
        {
          "internalType": "bytes4",
          "name": "interfaceId",
          "type": "bytes4"
        }
      ],
      "name": "supportsInterface",
      "outputs": [
        {
          "internalType": "bool",
          "name": "",
          "type": "bool"
        }
      ],
      "stateMutability": "view",
      "type": "function"
    },
    {
      "inputs": [
        {
          "internalType": "address",
          "name": "newOwner",
          "type": "address"
        }
      ],
      "name": "transferOwnership",
      "outputs": [],
      "stateMutability": "nonpayable",
      "type": "function"
    },
    {
      "inputs": [
        {
          "internalType": "uint256",
          "name": "_phase",
          "type": "uint256"
        }
      ],
      "name": "setPreSalePhase",
      "outputs": [
        {
          "internalType": "bool",
          "name": "success",
          "type": "bool"
        }
      ],
      "stateMutability": "nonpayable",
      "type": "function"
    }
  ],
  "bytecode": "0x60806040526002805460ff1916905534801561001a57600080fd5b5061003d61002f640100000000610042810204565b640100000000610046810204565b610096565b3390565b60008054600160a060020a03838116600160a060020a0319831681178455604051919092169283917f8be0079c531659141344cd1fd0a4f28419497f9722a3daafe3b4186f6b6457e09190a35050565b610bb7806100a56000396000f3fe608060405234801561001057600080fd5b50600436106100d1576000357c0100000000000000000000000000000000000000000000000000000000900480638da5cb5b1161008e5780638da5cb5b1461017a57806391d1485414610195578063a217fddf146101a8578063d547741f146101b0578063d7ed5526146101c3578063f2fde38b146101d657600080fd5b806301ffc9a7146100d6578063248a9ca3146100fe5780632f2ff15d1461013057806336568abe1461014557806368955fb114610158578063715018a614610172575b600080fd5b6100e96100e43660046108ee565b6101e9565b60405190151581526020015b60405180910390f35b61012261010c36600461092d565b6000908152600160208190526040909120015490565b6040519081526020016100f5565b61014361013e36600461095d565b61027c565b005b61014361015336600461095d565b6102a8565b6002546101659060ff1681565b6040516100f59190610989565b61014361033c565b600054604051600160a060020a0390911681526020016100f5565b6100e96101a336600461095d565b610375565b610122600081565b6101436101be36600461095d565b6103a0565b6100e96101d136600461092d565b6103c7565b6101436101e43660046109b4565b61044f565b60007bffffffffffffffffffffffffffffffffffffffffffffffffffffffff1982167f7965db0b00000000000000000000000000000000000000000000000000000000148061027657507f01ffc9a7000000000000000000000000000000000000000000000000000000007bffffffffffffffffffffffffffffffffffffffffffffffffffffffff198316145b92915050565b600082815260016020819052604090912001546102998133610507565b6102a3838361056e565b505050565b600160a060020a038116331461032e5760405160e560020a62461bcd02815260206004820152602f60248201527f416363657373436f6e74726f6c3a2063616e206f6e6c792072656e6f756e636560448201527f20726f6c657320666f722073656c66000000000000000000000000000000000060648201526084015b60405180910390fd5b61033882826105d9565b5050565b600054600160a060020a031633146103695760405160e560020a62461bcd028152600401610325906109cf565b6103736000610640565b565b6000918252600160209081526040808420600160a060020a0393909316845291905290205460ff1690565b600082815260016020819052604090912001546103bd8133610507565b6102a383836105d9565b60008054600160a060020a031633146103f55760405160e560020a62461bcd028152600401610325906109cf565b8161041457600280546000919060ff19166001835b0217905550610446565b816001141561043057600280546001919060ff1916828061040a565b8160021415610446576002805460ff1916811790555b5060015b919050565b600054600160a060020a0316331461047c5760405160e560020a62461bcd028152600401610325906109cf565b600160a060020a0381166104fb5760405160e560020a62461bcd02815260206004820152602660248201527f4f776e61626c653a206e6577206f776e657220697320746865207a65726f206160448201527f64647265737300000000000000000000000000000000000000000000000000006064820152608401610325565b61050481610640565b50565b6105118282610375565b6103385761052981600160a060020a0316601461069d565b61053483602061069d565b604051602001610545929190610a34565b60408051601f198184030181529082905260e560020a62461bcd02825261032591600401610ab5565b6105788282610375565b610338576000828152600160208181526040808420600160a060020a0386168086529252808420805460ff19169093179092559051339285917f2f8788117e7eff1d82e926ec794901d17c78024a50270940304540a733656f0d9190a45050565b6105e38282610375565b15610338576000828152600160209081526040808320600160a060020a0385168085529252808320805460ff1916905551339285917ff6391f5c32d9c69d2a47ea670b442974b53935d1edc7fd64eb21e047a839171b9190a45050565b60008054600160a060020a0383811673ffffffffffffffffffffffffffffffffffffffff19831681178455604051919092169283917f8be0079c531659141344cd1fd0a4f28419497f9722a3daafe3b4186f6b6457e09190a35050565b606060006106ac836002610b01565b6106b7906002610b20565b67ffffffffffffffff8111156106cf576106cf610b38565b6040519080825280601f01601f1916602001820160405280156106f9576020820181803683370190505b5090507f30000000000000000000000000000000000000000000000000000000000000008160008151811061073057610730610b51565b60200101907effffffffffffffffffffffffffffffffffffffffffffffffffffffffffffff1916908160001a9053507f78000000000000000000000000000000000000000000000000000000000000008160018151811061079357610793610b51565b60200101907effffffffffffffffffffffffffffffffffffffffffffffffffffffffffffff1916908160001a90535060006107cf846002610b01565b6107da906001610b20565b90505b6001811115610895577f303132333435363738396162636465660000000000000000000000000000000085600f166010811061081b5761081b610b51565b1a7f01000000000000000000000000000000000000000000000000000000000000000282828151811061085057610850610b51565b60200101907effffffffffffffffffffffffffffffffffffffffffffffffffffffffffffff1916908160001a90535060109094049361088e81610b6a565b90506107dd565b5083156108e75760405160e560020a62461bcd02815260206004820181905260248201527f537472696e67733a20686578206c656e67746820696e73756666696369656e746044820152606401610325565b9392505050565b60006020828403121561090057600080fd5b81357bffffffffffffffffffffffffffffffffffffffffffffffffffffffff19811681146108e757600080fd5b60006020828403121561093f57600080fd5b5035919050565b8035600160a060020a038116811461044a57600080fd5b6000806040838503121561097057600080fd5b8235915061098060208401610946565b90509250929050565b60208101600383106109ae5760e060020a634e487b7102600052602160045260246000fd5b91905290565b6000602082840312156109c657600080fd5b6108e782610946565b6020808252818101527f4f776e61626c653a2063616c6c6572206973206e6f7420746865206f776e6572604082015260600190565b60005b83811015610a1f578181015183820152602001610a07565b83811115610a2e576000848401525b50505050565b7f416363657373436f6e74726f6c3a206163636f756e7420000000000000000000815260008351610a6c816017850160208801610a04565b7f206973206d697373696e6720726f6c65200000000000000000000000000000006017918401918201528351610aa9816028840160208801610a04565b01602801949350505050565b6020815260008251806020840152610ad4816040850160208701610a04565b601f01601f19169190910160400192915050565b60e060020a634e487b7102600052601160045260246000fd5b6000816000190483118215151615610b1b57610b1b610ae8565b500290565b60008219821115610b3357610b33610ae8565b500190565b60e060020a634e487b7102600052604160045260246000fd5b60e060020a634e487b7102600052603260045260246000fd5b600081610b7957610b79610ae8565b50600019019056fea2646970667358221220d3acd83c0fc5dba318dfab842cd5303b3cf52e1081222c3f042fd79493849d4664736f6c634300080b0033",
  "immutableReferences": {},
  "source": "// SPDX-License-Identifier: MIT\npragma solidity ^0.8.0;\nimport '@openzeppelin/contracts/token/ERC20/utils/TokenTimeLock.sol';\nimport '@openzeppelin/contracts/access/Ownable.sol';\nimport '@openzeppelin/contracts/access/AccessControl.sol';\n\n/**\n* @title BrnMeterversePreSale\n* @dev A contract that manages the BRN Meterverse Presale logic\n*/\ncontract BrnMeterversePreSale is Ownable, AccessControl {\n\n  //presale phases\n  enum ICOPresalePhase { Phase1, Phase2, Phase3 }\n\n  //set the default ICO phase\n  ICOPresalePhase public icoPhase = ICOPresalePhase.Phase1;\n\n  constructor() public {\n  }\n\n  /**\n  * @notice enables the contract owner to set the ICO presale phase for the contract\n  * @param _phase uint\n  * @return success \n  */\n  function setPreSalePhase(uint _phase) public onlyOwner returns(bool success){\n    if(uint(ICOPresalePhase.Phase1) == _phase){\n      icoPhase = ICOPresalePhase.Phase1;\n    }else if(uint(ICOPresalePhase.Phase2) == _phase){\n      icoPhase = ICOPresalePhase.Phase2;\n    }else if(uint(ICOPresalePhase.Phase3) == _phase){\n      icoPhase = ICOPresalePhase.Phase3;\n    }\n    return true;\n  }\n}\n",
  "sourcePath": "D:/Dickens/Programming/Blockchain/Projects/JOBS/BrnMeterverse/contracts/BrnMeterverseSale.sol",
  "compiler": {
    "name": "solc",
    "version": "0.8.11+commit.d7f03943.Emscripten.clang"
  },
  "schemaVersion": "3.4.1",
  "updatedAt": "2022-01-29T23:38:38.831Z",
  "devdoc": {
    "details": "A contract that manages the BRN Meterverse Presale logic",
    "kind": "dev",
    "methods": {
      "getRoleAdmin(bytes32)": {
        "details": "Returns the admin role that controls `role`. See {grantRole} and {revokeRole}. To change a role's admin, use {_setRoleAdmin}."
      },
      "grantRole(bytes32,address)": {
        "details": "Grants `role` to `account`. If `account` had not been already granted `role`, emits a {RoleGranted} event. Requirements: - the caller must have ``role``'s admin role."
      },
      "hasRole(bytes32,address)": {
        "details": "Returns `true` if `account` has been granted `role`."
      },
      "owner()": {
        "details": "Returns the address of the current owner."
      },
      "renounceOwnership()": {
        "details": "Leaves the contract without owner. It will not be possible to call `onlyOwner` functions anymore. Can only be called by the current owner. NOTE: Renouncing ownership will leave the contract without an owner, thereby removing any functionality that is only available to the owner."
      },
      "renounceRole(bytes32,address)": {
        "details": "Revokes `role` from the calling account. Roles are often managed via {grantRole} and {revokeRole}: this function's purpose is to provide a mechanism for accounts to lose their privileges if they are compromised (such as when a trusted device is misplaced). If the calling account had been revoked `role`, emits a {RoleRevoked} event. Requirements: - the caller must be `account`."
      },
      "revokeRole(bytes32,address)": {
        "details": "Revokes `role` from `account`. If `account` had been granted `role`, emits a {RoleRevoked} event. Requirements: - the caller must have ``role``'s admin role."
      },
      "setPreSalePhase(uint256)": {
        "params": {
          "_phase": "uint"
        },
        "returns": {
          "success": ""
        }
      },
      "supportsInterface(bytes4)": {
        "details": "See {IERC165-supportsInterface}."
      },
      "transferOwnership(address)": {
        "details": "Transfers ownership of the contract to a new account (`newOwner`). Can only be called by the current owner."
      }
    },
    "title": "BrnMeterversePreSale",
    "version": 1
  },
  "userdoc": {
    "kind": "user",
    "methods": {
      "setPreSalePhase(uint256)": {
        "notice": "enables the contract owner to set the ICO presale phase for the contract"
      }
    },
    "version": 1
  }
}