{
  "contractName": "BrnPancakeSwapV2Integration",
  "abi": [
    {
      "inputs": [
        {
          "internalType": "address",
          "name": "_brnTokenAddress",
          "type": "address"
        }
      ],
      "stateMutability": "nonpayable",
      "type": "constructor"
    },
    {
      "anonymous": false,
      "inputs": [
        {
          "indexed": true,
          "internalType": "address",
          "name": "previousOwner",
          "type": "address"
        },
        {
          "indexed": true,
          "internalType": "address",
          "name": "newOwner",
          "type": "address"
        }
      ],
      "name": "OwnershipTransferred",
      "type": "event"
    },
    {
      "inputs": [],
      "name": "bnbTokenAddress",
      "outputs": [
        {
          "internalType": "address",
          "name": "",
          "type": "address"
        }
      ],
      "stateMutability": "view",
      "type": "function",
      "constant": true
    },
    {
      "inputs": [
        {
          "internalType": "address",
          "name": "",
          "type": "address"
        }
      ],
      "name": "brnBnbPairExists",
      "outputs": [
        {
          "internalType": "bool",
          "name": "",
          "type": "bool"
        }
      ],
      "stateMutability": "view",
      "type": "function",
      "constant": true
    },
    {
      "inputs": [],
      "name": "brnTokenAddress",
      "outputs": [
        {
          "internalType": "address",
          "name": "",
          "type": "address"
        }
      ],
      "stateMutability": "view",
      "type": "function",
      "constant": true
    },
    {
      "inputs": [],
      "name": "owner",
      "outputs": [
        {
          "internalType": "address",
          "name": "",
          "type": "address"
        }
      ],
      "stateMutability": "view",
      "type": "function",
      "constant": true
    },
    {
      "inputs": [],
      "name": "pancakeSwapV2Factory",
      "outputs": [
        {
          "internalType": "address",
          "name": "",
          "type": "address"
        }
      ],
      "stateMutability": "view",
      "type": "function",
      "constant": true
    },
    {
      "inputs": [],
      "name": "pancakeSwapV2Router",
      "outputs": [
        {
          "internalType": "address",
          "name": "",
          "type": "address"
        }
      ],
      "stateMutability": "view",
      "type": "function",
      "constant": true
    },
    {
      "inputs": [],
      "name": "renounceOwnership",
      "outputs": [],
      "stateMutability": "nonpayable",
      "type": "function"
    },
    {
      "inputs": [
        {
          "internalType": "address",
          "name": "newOwner",
          "type": "address"
        }
      ],
      "name": "transferOwnership",
      "outputs": [],
      "stateMutability": "nonpayable",
      "type": "function"
    },
    {
      "inputs": [],
      "name": "addBrnBnbPoolPair",
      "outputs": [
        {
          "internalType": "bool",
          "name": "success",
          "type": "bool"
        }
      ],
      "stateMutability": "nonpayable",
      "type": "function"
    },
    {
      "inputs": [
        {
          "internalType": "uint256",
          "name": "_amountTokenDesired",
          "type": "uint256"
        },
        {
          "internalType": "uint256",
          "name": "_amountTokenMin",
          "type": "uint256"
        },
        {
          "internalType": "uint256",
          "name": "_amountETHMin",
          "type": "uint256"
        },
        {
          "internalType": "uint256",
          "name": "_deadline",
          "type": "uint256"
        }
      ],
      "name": "addBrnBnbLiquidity",
      "outputs": [
        {
          "internalType": "uint256",
          "name": "amountToken",
          "type": "uint256"
        },
        {
          "internalType": "uint256",
          "name": "amountETH",
          "type": "uint256"
        },
        {
          "internalType": "uint256",
          "name": "liquidity",
          "type": "uint256"
        }
      ],
      "stateMutability": "payable",
      "type": "function",
      "payable": true
    }
  ],
  "bytecode": "0x61010060405273bb4cdb9cbd36b01bd1cbaebf2de08d9173bc095c60a05273ca143ce32fe78f1f7019d7d551a6402fc5350c7360c0527310ed43c718714eb63d5aa57b78b54704e256024e60e05234801561005957600080fd5b50604051610aa0380380610aa0833981016040819052610078916100ff565b61009a61008c6401000000006100ab810204565b6401000000006100af810204565b600160a060020a031660805261012f565b3390565b60008054600160a060020a03838116600160a060020a0319831681178455604051919092169283917f8be0079c531659141344cd1fd0a4f28419497f9722a3daafe3b4186f6b6457e09190a35050565b60006020828403121561011157600080fd5b8151600160a060020a038116811461012857600080fd5b9392505050565b60805160a05160c05160e0516109006101a0600039600081816101b001526103440152600081816102360152818161047201526105f70152600081816102020152818161044701526105cc015260008181610138015281816102fa0152818161041f01526105a401526109006000f3fe6080604052600436106100ae576000357c010000000000000000000000000000000000000000000000000000000090048063731a77eb11610076578063731a77eb1461019e5780638da5cb5b146101d2578063b3b640df146101f0578063cda78eb514610224578063f2fde38b1461025857600080fd5b8063115d1619146100b35780633fcae7a1146100e6578063531366a8146101265780636854b87614610172578063715018a614610187575b600080fd5b6100c66100c13660046107df565b610278565b604080519384526020840192909252908201526060015b60405180910390f35b3480156100f257600080fd5b50610116610101366004610826565b60016020526000908152604090205460ff1681565b60405190151581526020016100dd565b34801561013257600080fd5b5061015a7f000000000000000000000000000000000000000000000000000000000000000081565b604051600160a060020a0390911681526020016100dd565b34801561017e57600080fd5b506101166103c1565b34801561019357600080fd5b5061019c610691565b005b3480156101aa57600080fd5b5061015a7f000000000000000000000000000000000000000000000000000000000000000081565b3480156101de57600080fd5b50600054600160a060020a031661015a565b3480156101fc57600080fd5b5061015a7f000000000000000000000000000000000000000000000000000000000000000081565b34801561023057600080fd5b5061015a7f000000000000000000000000000000000000000000000000000000000000000081565b34801561026457600080fd5b5061019c610273366004610826565b6106ca565b6000808033600160a060020a0316610298600054600160a060020a031690565b600160a060020a0316146102ca5760405160e560020a62461bcd0281526004016102c19061084a565b60405180910390fd5b6040517ff305d719000000000000000000000000000000000000000000000000000000008152600160a060020a037f00000000000000000000000000000000000000000000000000000000000000008116600483015260248201899052604482018890526064820187905233608483015260a482018690527f0000000000000000000000000000000000000000000000000000000000000000169063f305d7199060c4016060604051808303816000875af115801561038d573d6000803e3d6000fd5b505050506040513d601f19601f820116820180604052508101906103b1919061087f565b9250925092509450945094915050565b60008054600160a060020a031633146103ef5760405160e560020a62461bcd0281526004016102c19061084a565b6040517fe6a43905000000000000000000000000000000000000000000000000000000008152600160a060020a037f0000000000000000000000000000000000000000000000000000000000000000811660048301527f0000000000000000000000000000000000000000000000000000000000000000811660248301526000917f00000000000000000000000000000000000000000000000000000000000000009091169063e6a4390590604401602060405180830381865afa1580156104bb573d6000803e3d6000fd5b505050506040513d601f19601f820116820180604052508101906104df91906108ad565b600160a060020a03811660009081526001602052604090205490915060ff16156105745760405160e560020a62461bcd02815260206004820152603460248201527f42524e204d6574657276657273652050616e63616b65537761703a20506f6f6c60448201527f205061697220416c72656164792045786973747300000000000000000000000060648201526084016102c1565b6040517fc9c65396000000000000000000000000000000000000000000000000000000008152600160a060020a037f0000000000000000000000000000000000000000000000000000000000000000811660048301527f0000000000000000000000000000000000000000000000000000000000000000811660248301526000917f00000000000000000000000000000000000000000000000000000000000000009091169063c9c65396906044016020604051808303816000875af1158015610642573d6000803e3d6000fd5b505050506040513d601f19601f8201168201806040525081019061066691906108ad565b600160a060020a03166000908152600160208190526040909120805460ff1916821790559250505090565b600054600160a060020a031633146106be5760405160e560020a62461bcd0281526004016102c19061084a565b6106c86000610782565b565b600054600160a060020a031633146106f75760405160e560020a62461bcd0281526004016102c19061084a565b600160a060020a0381166107765760405160e560020a62461bcd02815260206004820152602660248201527f4f776e61626c653a206e6577206f776e657220697320746865207a65726f206160448201527f646472657373000000000000000000000000000000000000000000000000000060648201526084016102c1565b61077f81610782565b50565b60008054600160a060020a0383811673ffffffffffffffffffffffffffffffffffffffff19831681178455604051919092169283917f8be0079c531659141344cd1fd0a4f28419497f9722a3daafe3b4186f6b6457e09190a35050565b600080600080608085870312156107f557600080fd5b5050823594602084013594506040840135936060013592509050565b600160a060020a038116811461077f57600080fd5b60006020828403121561083857600080fd5b813561084381610811565b9392505050565b6020808252818101527f4f776e61626c653a2063616c6c6572206973206e6f7420746865206f776e6572604082015260600190565b60008060006060848603121561089457600080fd5b8351925060208401519150604084015190509250925092565b6000602082840312156108bf57600080fd5b81516108438161081156fea26469706673582212203c90956be239d9bc294c291ba5425d2cf778e90a8206b50925db052356e13d3b64736f6c634300080b0033",
  "immutableReferences": {
    "1162": [
      {
        "length": 32,
        "start": 312
      },
      {
        "length": 32,
        "start": 762
      },
      {
        "length": 32,
        "start": 1055
      },
      {
        "length": 32,
        "start": 1444
      }
    ],
    "1165": [
      {
        "length": 32,
        "start": 514
      },
      {
        "length": 32,
        "start": 1095
      },
      {
        "length": 32,
        "start": 1484
      }
    ],
    "1168": [
      {
        "length": 32,
        "start": 566
      },
      {
        "length": 32,
        "start": 1138
      },
      {
        "length": 32,
        "start": 1527
      }
    ],
    "1171": [
      {
        "length": 32,
        "start": 432
      },
      {
        "length": 32,
        "start": 836
      }
    ]
  },
  "source": "// SPDX-License-Identifier: MIT\r\npragma solidity ^0.8.0;\r\npragma abicoder v2;\r\n\r\nimport '@openzeppelin/contracts/access/Ownable.sol';\r\n\r\n/**\r\n* @notice Interacts with pancakeswap to create a new liquidity pool pair for BRN/WBNB\r\n*/\r\ninterface PancakeSwapV2Factory{\r\n    function createPair(address tokenA, address tokenB) external returns (address pair);\r\n    function getPair(address tokenA, address tokenB) external view returns (address pair);\r\n}\r\n\r\n/**\r\n* @notice Interacts with pancakeswap to create a new liquidity pool for the BRN/WBNB pair created\r\n*/\r\ninterface PancakeSwapV2Router{\r\n    function addLiquidityETH(\r\n    address token,\r\n    uint amountTokenDesired,\r\n    uint amountTokenMin,\r\n    uint amountETHMin,\r\n    address to,\r\n    uint deadline\r\n) external payable returns (uint amountToken, uint amountETH, uint liquidity);\r\n\r\n}\r\n/**\r\n* @title  BrnMeterverseUniswapV3Integration\r\n* @notice Handles all the PancakeSwap integration functions for the BRN token on PancakeSwap DEX\r\n*/\r\ncontract BrnPancakeSwapV2Integration is Ownable { \r\n\r\n    address public immutable brnTokenAddress;  //update to BRN address once it is deployed\r\n    address public immutable bnbTokenAddress = 0xbb4CdB9CBd36B01bD1cBaEBF2De08d9173bc095c; //WBNB (Wrapped BNB)\r\n    address public immutable pancakeSwapV2Factory = 0xcA143Ce32Fe78f1f7019d7d551a6402fC5350c73;\r\n    address public immutable pancakeSwapV2Router = 0x10ED43C718714eb63d5aA57B78B54704E256024E;\r\n    \r\n    mapping(address => bool) public brnBnbPairExists;\r\n\r\n    constructor(address _brnTokenAddress) public {\r\n        brnTokenAddress = _brnTokenAddress;\r\n    }\r\n\r\n    /**\r\n    * @notice creates a new liquidoty pair for WBNB and BRN\r\n    * @dev only callable by the contract owner\r\n    * @dev if the pair exists already, reverts with error message\r\n    * @return success if pair was created \r\n    */\r\n    function addBrnBnbPoolPair() public onlyOwner returns(bool success){\r\n        address existingPair = PancakeSwapV2Factory(pancakeSwapV2Factory).getPair(brnTokenAddress, bnbTokenAddress);\r\n        require(brnBnbPairExists[existingPair] == false,\"BRN Meterverse PancakeSwap: Pool Pair Already Exists\");\r\n        address newPair = PancakeSwapV2Factory(pancakeSwapV2Factory).createPair(brnTokenAddress,bnbTokenAddress);\r\n        brnBnbPairExists[newPair] = true;\r\n        return true;\r\n    }\r\n\r\n    /**\r\n    * @notice Adds liquidity to a BRNWBNB pool.\r\n    * @param _amountTokenDesired uint The amount of the BRN tokens you'd to provide as liquidity\r\n    * @param _amountTokenMin uint The minimum amount of the BRN to provide (slippage impact).\r\n    * @param _amountETHMin uint The minimum amount of BNB to provide (slippage impact).\r\n    * @param _deadline uint Unix timestamp deadline by which the transaction must confirm.\r\n    **/\r\n    function addBrnBnbLiquidity(\r\n        uint _amountTokenDesired, \r\n        uint _amountTokenMin, \r\n        uint _amountETHMin,\r\n        uint _deadline) \r\n        public payable onlyOwner returns (uint amountToken, uint amountETH, uint liquidity){\r\n            return PancakeSwapV2Router(pancakeSwapV2Router).addLiquidityETH(\r\n                brnTokenAddress, \r\n                _amountTokenDesired, \r\n                _amountTokenMin, \r\n                _amountETHMin,\r\n                payable(msg.sender), //Address of Liquidity Pool Token recipient\r\n                _deadline);\r\n    }\r\n}",
  "sourcePath": "D:/Dickens/Programming/Blockchain/Projects/JOBS/BrnMeterverse/contracts/BrnPancakeSwapV2Integration.sol",
  "compiler": {
    "name": "solc",
    "version": "0.8.11+commit.d7f03943.Emscripten.clang"
  },
  "schemaVersion": "3.4.1",
  "updatedAt": "2022-01-31T10:23:23.001Z",
  "networkType": "ethereum",
  "devdoc": {
    "kind": "dev",
    "methods": {
      "addBrnBnbLiquidity(uint256,uint256,uint256,uint256)": {
        "params": {
          "_amountETHMin": "uint The minimum amount of BNB to provide (slippage impact).",
          "_amountTokenDesired": "uint The amount of the BRN tokens you'd to provide as liquidity",
          "_amountTokenMin": "uint The minimum amount of the BRN to provide (slippage impact).",
          "_deadline": "uint Unix timestamp deadline by which the transaction must confirm.*"
        }
      },
      "addBrnBnbPoolPair()": {
        "details": "only callable by the contract ownerif the pair exists already, reverts with error message",
        "returns": {
          "success": "if pair was created "
        }
      },
      "owner()": {
        "details": "Returns the address of the current owner."
      },
      "renounceOwnership()": {
        "details": "Leaves the contract without owner. It will not be possible to call `onlyOwner` functions anymore. Can only be called by the current owner. NOTE: Renouncing ownership will leave the contract without an owner, thereby removing any functionality that is only available to the owner."
      },
      "transferOwnership(address)": {
        "details": "Transfers ownership of the contract to a new account (`newOwner`). Can only be called by the current owner."
      }
    },
    "title": "BrnMeterverseUniswapV3Integration",
    "version": 1
  },
  "userdoc": {
    "kind": "user",
    "methods": {
      "addBrnBnbLiquidity(uint256,uint256,uint256,uint256)": {
        "notice": "Adds liquidity to a BRNWBNB pool."
      },
      "addBrnBnbPoolPair()": {
        "notice": "creates a new liquidoty pair for WBNB and BRN"
      }
    },
    "notice": "Handles all the PancakeSwap integration functions for the BRN token on PancakeSwap DEX",
    "version": 1
  }
}