{
  "contractName": "BRNToken",
  "abi": [
    {
      "inputs": [],
      "stateMutability": "nonpayable",
      "type": "constructor"
    },
    {
      "anonymous": false,
      "inputs": [
        {
          "indexed": true,
          "internalType": "address",
          "name": "owner",
          "type": "address"
        },
        {
          "indexed": true,
          "internalType": "address",
          "name": "spender",
          "type": "address"
        },
        {
          "indexed": false,
          "internalType": "uint256",
          "name": "value",
          "type": "uint256"
        }
      ],
      "name": "Approval",
      "type": "event"
    },
    {
      "anonymous": false,
      "inputs": [
        {
          "indexed": true,
          "internalType": "address",
          "name": "previousOwner",
          "type": "address"
        },
        {
          "indexed": true,
          "internalType": "address",
          "name": "newOwner",
          "type": "address"
        }
      ],
      "name": "OwnershipTransferred",
      "type": "event"
    },
    {
      "anonymous": false,
      "inputs": [
        {
          "indexed": true,
          "internalType": "address",
          "name": "from",
          "type": "address"
        },
        {
          "indexed": true,
          "internalType": "address",
          "name": "to",
          "type": "address"
        },
        {
          "indexed": false,
          "internalType": "uint256",
          "name": "value",
          "type": "uint256"
        }
      ],
      "name": "Transfer",
      "type": "event"
    },
    {
      "inputs": [],
      "name": "_decimals",
      "outputs": [
        {
          "internalType": "uint256",
          "name": "",
          "type": "uint256"
        }
      ],
      "stateMutability": "view",
      "type": "function"
    },
    {
      "inputs": [],
      "name": "_name",
      "outputs": [
        {
          "internalType": "string",
          "name": "",
          "type": "string"
        }
      ],
      "stateMutability": "view",
      "type": "function"
    },
    {
      "inputs": [],
      "name": "_symbol",
      "outputs": [
        {
          "internalType": "string",
          "name": "",
          "type": "string"
        }
      ],
      "stateMutability": "view",
      "type": "function"
    },
    {
      "inputs": [],
      "name": "owner",
      "outputs": [
        {
          "internalType": "address",
          "name": "",
          "type": "address"
        }
      ],
      "stateMutability": "view",
      "type": "function"
    },
    {
      "inputs": [],
      "name": "renounceOwnership",
      "outputs": [],
      "stateMutability": "nonpayable",
      "type": "function"
    },
    {
      "inputs": [
        {
          "internalType": "address",
          "name": "newOwner",
          "type": "address"
        }
      ],
      "name": "transferOwnership",
      "outputs": [],
      "stateMutability": "nonpayable",
      "type": "function"
    },
    {
      "inputs": [],
      "name": "name",
      "outputs": [
        {
          "internalType": "string",
          "name": "",
          "type": "string"
        }
      ],
      "stateMutability": "view",
      "type": "function"
    },
    {
      "inputs": [],
      "name": "symbol",
      "outputs": [
        {
          "internalType": "string",
          "name": "",
          "type": "string"
        }
      ],
      "stateMutability": "view",
      "type": "function"
    },
    {
      "inputs": [],
      "name": "decimals",
      "outputs": [
        {
          "internalType": "uint256",
          "name": "",
          "type": "uint256"
        }
      ],
      "stateMutability": "view",
      "type": "function"
    },
    {
      "inputs": [],
      "name": "totalSupply",
      "outputs": [
        {
          "internalType": "uint256",
          "name": "",
          "type": "uint256"
        }
      ],
      "stateMutability": "view",
      "type": "function"
    },
    {
      "inputs": [],
      "name": "getOwner",
      "outputs": [
        {
          "internalType": "address",
          "name": "",
          "type": "address"
        }
      ],
      "stateMutability": "view",
      "type": "function"
    },
    {
      "inputs": [
        {
          "internalType": "address",
          "name": "account",
          "type": "address"
        }
      ],
      "name": "balanceOf",
      "outputs": [
        {
          "internalType": "uint256",
          "name": "",
          "type": "uint256"
        }
      ],
      "stateMutability": "view",
      "type": "function"
    },
    {
      "inputs": [
        {
          "internalType": "address",
          "name": "recipient",
          "type": "address"
        },
        {
          "internalType": "uint256",
          "name": "amount",
          "type": "uint256"
        }
      ],
      "name": "transfer",
      "outputs": [
        {
          "internalType": "bool",
          "name": "",
          "type": "bool"
        }
      ],
      "stateMutability": "nonpayable",
      "type": "function"
    },
    {
      "inputs": [
        {
          "internalType": "address",
          "name": "sender",
          "type": "address"
        },
        {
          "internalType": "address",
          "name": "recipient",
          "type": "address"
        },
        {
          "internalType": "uint256",
          "name": "amount",
          "type": "uint256"
        }
      ],
      "name": "transferFrom",
      "outputs": [
        {
          "internalType": "bool",
          "name": "",
          "type": "bool"
        }
      ],
      "stateMutability": "nonpayable",
      "type": "function"
    },
    {
      "inputs": [
        {
          "internalType": "address",
          "name": "_owner",
          "type": "address"
        },
        {
          "internalType": "address",
          "name": "_spender",
          "type": "address"
        }
      ],
      "name": "allowance",
      "outputs": [
        {
          "internalType": "uint256",
          "name": "",
          "type": "uint256"
        }
      ],
      "stateMutability": "view",
      "type": "function"
    },
    {
      "inputs": [
        {
          "internalType": "address",
          "name": "_spender",
          "type": "address"
        },
        {
          "internalType": "uint256",
          "name": "_amount",
          "type": "uint256"
        }
      ],
      "name": "approve",
      "outputs": [
        {
          "internalType": "bool",
          "name": "",
          "type": "bool"
        }
      ],
      "stateMutability": "nonpayable",
      "type": "function"
    },
    {
      "inputs": [],
      "name": "withdraw",
      "outputs": [],
      "stateMutability": "nonpayable",
      "type": "function"
    }
  ],
  "bytecode": "0x60806040523480156200001157600080fd5b5062000038620000296401000000006200016b810204565b6401000000006200016f810204565b6040805180820190915260098082527f42524e20546f6b656e000000000000000000000000000000000000000000000060209092019182526200007e91600191620001d6565b506040805180820190915260038082527f42524e00000000000000000000000000000000000000000000000000000000006020909201918252620000c591600291620001d6565b5060126004819055620000da90600a620003ab565b620000ea90633b9aca00620003b9565b6003819055336000908152600560205260409020546200011891640100000000620008ea620001bf82021704565b336000818152600560209081526040808320949094556003549351938452919290917fddf252ad1be2c89b69c2b068fc378daa952ba7f163c4a11628f55a4df523b3ef910160405180910390a36200044c565b3390565b60008054600160a060020a03838116600160a060020a0319831681178455604051919092169283917f8be0079c531659141344cd1fd0a4f28419497f9722a3daafe3b4186f6b6457e09190a35050565b6000620001cd8284620003db565b90505b92915050565b828054620001e490620003f6565b90600052602060002090601f01602090048101928262000208576000855562000253565b82601f106200022357805160ff191683800117855562000253565b8280016001018555821562000253579182015b828111156200025357825182559160200191906001019062000236565b506200026192915062000265565b5090565b5b8082111562000261576000815560010162000266565b7f4e487b7100000000000000000000000000000000000000000000000000000000600052601160045260246000fd5b600181815b80851115620002ee578160001904821115620002d057620002d06200027c565b80851615620002de57918102915b60029094049390800290620002b0565b509250929050565b6000826200030757506001620001d0565b816200031657506000620001d0565b81600181146200032f57600281146200033a576200035b565b6001915050620001d0565b60ff8411156200034e576200034e6200027c565b8360020a915050620001d0565b5060208310610133831016604e8410600b841016171562000380575081810a620001d0565b6200038c8383620002ab565b8060001904821115620003a357620003a36200027c565b029392505050565b6000620001cd8383620002f6565b6000816000190483118215151615620003d657620003d66200027c565b500290565b60008219821115620003f157620003f16200027c565b500190565b6002810460018216806200040b57607f821691505b6020821081141562000446577f4e487b7100000000000000000000000000000000000000000000000000000000600052602260045260246000fd5b50919050565b610c62806200045c6000396000f3fe608060405234801561001057600080fd5b5060043610610128576000357c010000000000000000000000000000000000000000000000000000000090048063715018a6116100bf578063a9059cbb1161008e578063a9059cbb1461021d578063b09f126614610230578063d28d885214610238578063dd62ed3e14610240578063f2fde38b1461027957600080fd5b8063715018a6146101d7578063893d20e8146101df5780638da5cb5b1461020457806395d89b411461021557600080fd5b8063313ce567116100fb578063313ce5671461019357806332424aa31461019b5780633ccfd60b146101a457806370a08231146101ae57600080fd5b806306fdde031461012d578063095ea7b31461014b57806318160ddd1461016e57806323b872dd14610180575b600080fd5b61013561028c565b6040516101429190610966565b60405180910390f35b61015e6101593660046109d7565b61031e565b6040519015158152602001610142565b6003545b604051908152602001610142565b61015e61018e366004610a01565b610490565b600454610172565b61017260045481565b6101ac61062f565b005b6101726101bc366004610a3d565b600160a060020a031660009081526005602052604090205490565b6101ac61065e565b600054600160a060020a03165b604051600160a060020a039091168152602001610142565b600054600160a060020a03166101ec565b610135610695565b61015e61022b3660046109d7565b6106a4565b610135610797565b610135610825565b61017261024e366004610a58565b600160a060020a03918216600090815260066020908152604080832093909416825291909152205490565b6101ac610287366004610a3d565b610832565b60606001805461029b90610a8b565b80601f01602080910402602001604051908101604052809291908181526020018280546102c790610a8b565b80156103145780601f106102e957610100808354040283529160200191610314565b820191906000526020600020905b8154815290600101906020018083116102f757829003601f168201915b5050505050905090565b33600090815260056020526040812054808310156103ab5760405160e560020a62461bcd028152602060048201526024808201527f546f6b656e20417070726f76616c3a20496e73756666696369656e742042616c60448201527f616e63650000000000000000000000000000000000000000000000000000000060648201526084015b60405180910390fd5b600160a060020a03841661042a5760405160e560020a62461bcd02815260206004820152602760248201527f546f6b656e20417070726f76616c3a20496e76616c6964205370656e6465722060448201527f416464726573730000000000000000000000000000000000000000000000000060648201526084016103a2565b336000818152600660209081526040808320600160a060020a03891680855290835292819020879055518681529192917f8c5be1e5ebec7d5bd14f71427d1e84f3dd0314c0f7b2291e5b200ac8c7c3b92591015b60405180910390a35060019392505050565b6000600160a060020a0384166105115760405160e560020a62461bcd02815260206004820152602660248201527f546f6b656e205472616e736665723a20496e76616c69642053656e646572204160448201527f646472657373000000000000000000000000000000000000000000000000000060648201526084016103a2565b600160a060020a03831661053a5760405160e560020a62461bcd0281526004016103a290610adf565b600160a060020a038416600090815260056020526040902054808310156105765760405160e560020a62461bcd0281526004016103a290610b3c565b600160a060020a03851660009081526005602052604090205461059990846108fd565b600160a060020a0380871660009081526005602052604080822093909355908616815220546105c890846108ea565b600160a060020a0380861660008181526005602052604090819020939093559151908716907fddf252ad1be2c89b69c2b068fc378daa952ba7f163c4a11628f55a4df523b3ef9061061c9087815260200190565b60405180910390a3506001949350505050565b600054600160a060020a0316331461065c5760405160e560020a62461bcd0281526004016103a290610b99565b565b600054600160a060020a0316331461068b5760405160e560020a62461bcd0281526004016103a290610b99565b61065c6000610909565b60606002805461029b90610a8b565b33600090815260056020526040812054600160a060020a0384166106dd5760405160e560020a62461bcd0281526004016103a290610adf565b808310156107005760405160e560020a62461bcd0281526004016103a290610b3c565b3360009081526005602052604090205461071a90846108fd565b3360009081526005602052604080822092909255600160a060020a0386168152205461074690846108ea565b600160a060020a0385166000818152600560205260409081902092909255905133907fddf252ad1be2c89b69c2b068fc378daa952ba7f163c4a11628f55a4df523b3ef9061047e9087815260200190565b600280546107a490610a8b565b80601f01602080910402602001604051908101604052809291908181526020018280546107d090610a8b565b801561081d5780601f106107f25761010080835404028352916020019161081d565b820191906000526020600020905b81548152906001019060200180831161080057829003601f168201915b505050505081565b600180546107a490610a8b565b600054600160a060020a0316331461085f5760405160e560020a62461bcd0281526004016103a290610b99565b600160a060020a0381166108de5760405160e560020a62461bcd02815260206004820152602660248201527f4f776e61626c653a206e6577206f776e657220697320746865207a65726f206160448201527f646472657373000000000000000000000000000000000000000000000000000060648201526084016103a2565b6108e781610909565b50565b60006108f68284610bfd565b9392505050565b60006108f68284610c15565b60008054600160a060020a0383811673ffffffffffffffffffffffffffffffffffffffff19831681178455604051919092169283917f8be0079c531659141344cd1fd0a4f28419497f9722a3daafe3b4186f6b6457e09190a35050565b600060208083528351808285015260005b8181101561099357858101830151858201604001528201610977565b818111156109a5576000604083870101525b50601f01601f1916929092016040019392505050565b8035600160a060020a03811681146109d257600080fd5b919050565b600080604083850312156109ea57600080fd5b6109f3836109bb565b946020939093013593505050565b600080600060608486031215610a1657600080fd5b610a1f846109bb565b9250610a2d602085016109bb565b9150604084013590509250925092565b600060208284031215610a4f57600080fd5b6108f6826109bb565b60008060408385031215610a6b57600080fd5b610a74836109bb565b9150610a82602084016109bb565b90509250929050565b600281046001821680610a9f57607f821691505b60208210811415610ad9577f4e487b7100000000000000000000000000000000000000000000000000000000600052602260045260246000fd5b50919050565b60208082526021908201527f546f6b656e205472616e736665723a20496e76616c696420526563697069656e60408201527f7400000000000000000000000000000000000000000000000000000000000000606082015260800190565b60208082526024908201527f546f6b656e205472616e736665723a20496e73756666696369656e742042616c60408201527f616e636500000000000000000000000000000000000000000000000000000000606082015260800190565b6020808252818101527f4f776e61626c653a2063616c6c6572206973206e6f7420746865206f776e6572604082015260600190565b7f4e487b7100000000000000000000000000000000000000000000000000000000600052601160045260246000fd5b60008219821115610c1057610c10610bce565b500190565b600082821015610c2757610c27610bce565b50039056fea26469706673582212204dd7cb647b418146008ed2ac996b52b404d39ba0c65c2067737eb4fcc789eebf64736f6c634300080b0033",
  "immutableReferences": {},
  "source": "// SPDX-License-Identifier: MIT\npragma solidity ^0.8.0;\npragma abicoder v2;\nimport '@openzeppelin/contracts/access/Ownable.sol';\nimport '@openzeppelin/contracts/utils/math/SafeMath.sol';\nimport '@openzeppelin/contracts/security/ReentrancyGuard.sol';\nimport './interfaces/IBEP2E.sol';\n\n//ReentrancyGuard\ncontract BRNToken is Ownable, IBEP2E  {\n  using SafeMath for uint256;\n\n  string public _name;\n  string public _symbol;\n  uint private _totalSuplly;\n  uint public _decimals;\n\n  mapping(address => uint) private balances;\n  mapping(address => mapping(address => uint)) private allowances;\n\n  constructor() public {\n    _name = \"BRN Token\";\n    _symbol = \"BRN\";\n    _decimals = 18;\n    _totalSuplly = 1000000000 * 10 ** _decimals;\n    balances[msg.sender] = balances[msg.sender].add(_totalSuplly);\n    emit Transfer(address(0), msg.sender, _totalSuplly);\n  }\n\n  /**\n  * @notice token name\n  * @return string token name\n  */\n  function name() public view override returns(string memory){\n    return _name;\n  }\n\n  /** \n  * @notice token symbol\n  * @return string symbol. The Token Symbol\n  */\n  function symbol() public view override returns(string memory){\n    return _symbol;\n  }\n\n  /**\n  * @notice the total number of decimals for the BRN token\n  * @return uint number of decimals\n  */\n  function decimals() public view override returns(uint){\n    return _decimals;\n  }\n\n  /**\n  * @notice the total token supply in circulation\n  * @return uint total supply\n  */\n  function totalSupply() public view override returns(uint){\n    return _totalSuplly;\n  }\n\n  /**\n  * @notice should return the address of the contract owner\n  * @return address the owner address specified in the Ownable contract\n  */\n  function getOwner() public view override returns (address){\n    return owner();\n  }\n  \n  /**\n  * @notice how much token balance does this address have\n  * @dev the account should not be the zero address , address(0)\n  * @param account account the address to which we want to determine their token balance\n  * @return uint the total balance of the specied address\n  */\n  function balanceOf(address account) public view override returns (uint256){\n    return balances[account];\n  }\n\n  /**\n  * @notice transfer a specicied amount pf tokens to a recipient address\n  * @dev the recipient address should not be an empty address address(0)\n  * @dev the sender's total balance must be equal to or greater than the amount specified\n  * @dev the nonReentrant modifier protects this function from reentrancy attacks\n  * @param recipient address the person receiving the tokens\n  * @param amount uint the amount of tokens to be sent to the specied address as the recepient\n  * @return bool success if the transfer was successfull otherwise false\n  */\n  function transfer(address recipient, uint256 amount) public override returns (bool){ //nonReentrant\n    uint senderTokenBalance = balances[msg.sender];\n    require(recipient != address(0),\"Token Transfer: Invalid Recipient\");\n    require(amount >= senderTokenBalance,\"Token Transfer: Insufficient Balance\");\n    balances[msg.sender] = balances[msg.sender].sub(amount); //use safemath to prevent integer underflow\n    balances[recipient] = balances[recipient].add(amount); //use safemath to prevent integer overflow\n    emit Transfer(msg.sender, recipient, amount);\n    return true;\n  }\n\n  /**\n  * @notice transfer the specidied amount of tokens from the sender address to the recipient address\n  * @dev both the sender and recipient address should not be the empty address, address(0)\n  * @dev the amount of tokens being moved from the sender to the recipient address should \n  * @dev not be less than the sender's total balances\n  * @dev the nonReentrant modifier protects this function from reentrancy attacks\n  * @param sender address\n  * @param recipient address\n  * @param amount uint\n  * @return true if the transfer event was successfull\n  */\n  function transferFrom(address sender, address recipient, uint256 amount) public override returns (bool){ //nonReentrant\n    require(sender != address(0),\"Token Transfer: Invalid Sender Address\");\n    require(recipient != address(0),\"Token Transfer: Invalid Recipient\");\n    uint senderTokenBalance = balances[sender];\n    require(amount >= senderTokenBalance,\"Token Transfer: Insufficient Balance\");\n    balances[sender] = balances[sender].sub(amount);\n    balances[recipient] = balances[recipient].add(amount);\n    emit Transfer(sender, recipient, amount);\n    return true;\n  }\n\n  /**\n  * @notice returns the amount that owner appoved as allowance for the spender\n  * @dev both the owner and spender addresses should not be empty addresse address(0)\n  * @param _owner address the owner address\n  * @param _spender address the spender address\n  * @return uint, the amount approved for spending\n  */\n  function allowance(address _owner, address _spender) public view override returns (uint256){\n    return allowances[_owner][_spender];\n  }\n\n  /**\n  * @notice enables the token holder to add a new address than can spend the tokens on their behalf\n  * @dev the spender address should not be an empty address(0)\n  * @dev the amount to be approved should not be less than the sender's balance\n  * @param _spender address, the approved address\n  * @param _amount uint , the amount to approved by the token holder\n  */\n  function approve(address _spender, uint256 _amount) public override returns (bool){\n    uint senderTokenBalance = balances[msg.sender];\n    require(_amount >= senderTokenBalance,\"Token Approval: Insufficient Balance\");\n    require(_spender != address(0),\"Token Approval: Invalid Spender Address\");\n    allowances[msg.sender][_spender] = _amount;\n    emit Approval(msg.sender, _spender, _amount);\n    return true;\n  }\n\n  function withdraw() public onlyOwner { //nonReentrant\n\n  }\n\n}\n",
  "sourcePath": "D:/Dickens/Programming/Blockchain/Projects/JOBS/mrn-token/contracts/BRNToken.sol",
  "compiler": {
    "name": "solc",
    "version": "0.8.11+commit.d7f03943.Emscripten.clang"
  },
  "schemaVersion": "3.4.1",
  "updatedAt": "2022-01-27T17:46:40.222Z",
  "devdoc": {
    "kind": "dev",
    "methods": {
      "allowance(address,address)": {
        "details": "both the owner and spender addresses should not be empty addresse address(0)",
        "params": {
          "_owner": "address the owner address",
          "_spender": "address the spender address"
        },
        "returns": {
          "_0": "uint, the amount approved for spending"
        }
      },
      "approve(address,uint256)": {
        "details": "the spender address should not be an empty address(0)the amount to be approved should not be less than the sender's balance",
        "params": {
          "_amount": "uint , the amount to approved by the token holder",
          "_spender": "address, the approved address"
        }
      },
      "balanceOf(address)": {
        "details": "the account should not be the zero address , address(0)",
        "params": {
          "account": "account the address to which we want to determine their token balance"
        },
        "returns": {
          "_0": "uint the total balance of the specied address"
        }
      },
      "decimals()": {
        "returns": {
          "_0": "uint number of decimals"
        }
      },
      "getOwner()": {
        "returns": {
          "_0": "address the owner address specified in the Ownable contract"
        }
      },
      "name()": {
        "returns": {
          "_0": "string token name"
        }
      },
      "owner()": {
        "details": "Returns the address of the current owner."
      },
      "renounceOwnership()": {
        "details": "Leaves the contract without owner. It will not be possible to call `onlyOwner` functions anymore. Can only be called by the current owner. NOTE: Renouncing ownership will leave the contract without an owner, thereby removing any functionality that is only available to the owner."
      },
      "symbol()": {
        "returns": {
          "_0": "string symbol. The Token Symbol"
        }
      },
      "totalSupply()": {
        "returns": {
          "_0": "uint total supply"
        }
      },
      "transfer(address,uint256)": {
        "details": "the recipient address should not be an empty address address(0)the sender's total balance must be equal to or greater than the amount specifiedthe nonReentrant modifier protects this function from reentrancy attacks",
        "params": {
          "amount": "uint the amount of tokens to be sent to the specied address as the recepient",
          "recipient": "address the person receiving the tokens"
        },
        "returns": {
          "_0": "bool success if the transfer was successfull otherwise false"
        }
      },
      "transferFrom(address,address,uint256)": {
        "details": "both the sender and recipient address should not be the empty address, address(0)the amount of tokens being moved from the sender to the recipient address should not be less than the sender's total balancesthe nonReentrant modifier protects this function from reentrancy attacks",
        "params": {
          "amount": "uint",
          "recipient": "address",
          "sender": "address"
        },
        "returns": {
          "_0": "true if the transfer event was successfull"
        }
      },
      "transferOwnership(address)": {
        "details": "Transfers ownership of the contract to a new account (`newOwner`). Can only be called by the current owner."
      }
    },
    "version": 1
  },
  "userdoc": {
    "kind": "user",
    "methods": {
      "allowance(address,address)": {
        "notice": "returns the amount that owner appoved as allowance for the spender"
      },
      "approve(address,uint256)": {
        "notice": "enables the token holder to add a new address than can spend the tokens on their behalf"
      },
      "balanceOf(address)": {
        "notice": "how much token balance does this address have"
      },
      "decimals()": {
        "notice": "the total number of decimals for the BRN token"
      },
      "getOwner()": {
        "notice": "should return the address of the contract owner"
      },
      "name()": {
        "notice": "token name"
      },
      "symbol()": {
        "notice": "token symbol"
      },
      "totalSupply()": {
        "notice": "the total token supply in circulation"
      },
      "transfer(address,uint256)": {
        "notice": "transfer a specicied amount pf tokens to a recipient address"
      },
      "transferFrom(address,address,uint256)": {
        "notice": "transfer the specidied amount of tokens from the sender address to the recipient address"
      }
    },
    "version": 1
  }
}