{
  "contractName": "TokenTimelock",
  "abi": [
    {
      "inputs": [
        {
          "internalType": "contract IERC20",
          "name": "token_",
          "type": "address"
        },
        {
          "internalType": "address",
          "name": "beneficiary_",
          "type": "address"
        },
        {
          "internalType": "uint256",
          "name": "releaseTime_",
          "type": "uint256"
        }
      ],
      "stateMutability": "nonpayable",
      "type": "constructor"
    },
    {
      "inputs": [],
      "name": "token",
      "outputs": [
        {
          "internalType": "contract IERC20",
          "name": "",
          "type": "address"
        }
      ],
      "stateMutability": "view",
      "type": "function"
    },
    {
      "inputs": [],
      "name": "beneficiary",
      "outputs": [
        {
          "internalType": "address",
          "name": "",
          "type": "address"
        }
      ],
      "stateMutability": "view",
      "type": "function"
    },
    {
      "inputs": [],
      "name": "releaseTime",
      "outputs": [
        {
          "internalType": "uint256",
          "name": "",
          "type": "uint256"
        }
      ],
      "stateMutability": "view",
      "type": "function"
    },
    {
      "inputs": [],
      "name": "release",
      "outputs": [],
      "stateMutability": "nonpayable",
      "type": "function"
    }
  ],
  "bytecode": "0x60e060405234801561001057600080fd5b506040516108e63803806108e683398101604081905261002f916100f5565b4281116100c2576040517f08c379a000000000000000000000000000000000000000000000000000000000815260206004820152603260248201527f546f6b656e54696d656c6f636b3a2072656c656173652074696d65206973206260448201527f65666f72652063757272656e742074696d650000000000000000000000000000606482015260840160405180910390fd5b600160a060020a03928316608052911660a05260c052610138565b600160a060020a03811681146100f257600080fd5b50565b60008060006060848603121561010a57600080fd5b8351610115816100dd565b6020850151909350610126816100dd565b80925050604084015190509250925092565b60805160a05160c0516107666101806000396000818160c80152610119015260008181606f015261031f01526000818160f3015281816101b901526102fd01526107666000f3fe608060405234801561001057600080fd5b5060043610610068577c0100000000000000000000000000000000000000000000000000000000600035046338af3eed811461006d57806386d1a69f146100b9578063b91d4001146100c3578063fc0c546a146100f1575b600080fd5b7f00000000000000000000000000000000000000000000000000000000000000005b60405173ffffffffffffffffffffffffffffffffffffffff90911681526020015b60405180910390f35b6100c1610117565b005b6040517f000000000000000000000000000000000000000000000000000000000000000081526020016100b0565b7f000000000000000000000000000000000000000000000000000000000000000061008f565b7f00000000000000000000000000000000000000000000000000000000000000004210156101b55760405160e560020a62461bcd02815260206004820152603260248201527f546f6b656e54696d656c6f636b3a2063757272656e742074696d65206973206260448201527f65666f72652072656c656173652074696d65000000000000000000000000000060648201526084015b60405180910390fd5b60007f00000000000000000000000000000000000000000000000000000000000000006040517f70a0823100000000000000000000000000000000000000000000000000000000815230600482015273ffffffffffffffffffffffffffffffffffffffff91909116906370a0823190602401602060405180830381865afa158015610244573d6000803e3d6000fd5b505050506040513d601f19601f820116820180604052508101906102689190610676565b9050600081116102e35760405160e560020a62461bcd02815260206004820152602360248201527f546f6b656e54696d656c6f636b3a206e6f20746f6b656e7320746f2072656c6560448201527f617365000000000000000000000000000000000000000000000000000000000060648201526084016101ac565b61034473ffffffffffffffffffffffffffffffffffffffff7f0000000000000000000000000000000000000000000000000000000000000000167f000000000000000000000000000000000000000000000000000000000000000083610347565b50565b6040805173ffffffffffffffffffffffffffffffffffffffff8416602482015260448082018490528251808303909101815260649091019091526020810180517bffffffffffffffffffffffffffffffffffffffffffffffffffffffff167fa9059cbb000000000000000000000000000000000000000000000000000000001790526103d49084906103d9565b505050565b600061043b826040518060400160405280602081526020017f5361666545524332303a206c6f772d6c6576656c2063616c6c206661696c65648152508573ffffffffffffffffffffffffffffffffffffffff166104ce9092919063ffffffff16565b8051909150156103d45780806020019051810190610459919061068f565b6103d45760405160e560020a62461bcd02815260206004820152602a60248201527f5361666545524332303a204552433230206f7065726174696f6e20646964206e60448201527f6f7420737563636565640000000000000000000000000000000000000000000060648201526084016101ac565b60606104dd84846000856104e7565b90505b9392505050565b606030318311156105635760405160e560020a62461bcd02815260206004820152602660248201527f416464726573733a20696e73756666696369656e742062616c616e636520666f60448201527f722063616c6c000000000000000000000000000000000000000000000000000060648201526084016101ac565b843b6105b45760405160e560020a62461bcd02815260206004820152601d60248201527f416464726573733a2063616c6c20746f206e6f6e2d636f6e747261637400000060448201526064016101ac565b6000808673ffffffffffffffffffffffffffffffffffffffff1685876040516105dd91906106e1565b60006040518083038185875af1925050503d806000811461061a576040519150601f19603f3d011682016040523d82523d6000602084013e61061f565b606091505b509150915061062f82828661063a565b979650505050505050565b606083156106495750816104e0565b8251156106595782518084602001fd5b8160405160e560020a62461bcd0281526004016101ac91906106fd565b60006020828403121561068857600080fd5b5051919050565b6000602082840312156106a157600080fd5b815180151581146104e057600080fd5b60005b838110156106cc5781810151838201526020016106b4565b838111156106db576000848401525b50505050565b600082516106f38184602087016106b1565b9190910192915050565b602081526000825180602084015261071c8160408501602087016106b1565b601f01601f1916919091016040019291505056fea2646970667358221220e6ce86ca92c9db035f4d254fdc4b806ed9762c37aca6effc97705bdfb3258e3c64736f6c634300080b0033",
  "immutableReferences": {
    "1145": [
      {
        "length": 32,
        "start": 243
      },
      {
        "length": 32,
        "start": 441
      },
      {
        "length": 32,
        "start": 765
      }
    ],
    "1147": [
      {
        "length": 32,
        "start": 111
      },
      {
        "length": 32,
        "start": 799
      }
    ],
    "1149": [
      {
        "length": 32,
        "start": 200
      },
      {
        "length": 32,
        "start": 281
      }
    ]
  },
  "source": "// SPDX-License-Identifier: MIT\n// OpenZeppelin Contracts v4.4.1 (token/ERC20/utils/TokenTimelock.sol)\n\npragma solidity ^0.8.0;\n\nimport \"./SafeERC20.sol\";\n\n/**\n * @dev A token holder contract that will allow a beneficiary to extract the\n * tokens after a given release time.\n *\n * Useful for simple vesting schedules like \"advisors get all of their tokens\n * after 1 year\".\n */\ncontract TokenTimelock {\n    using SafeERC20 for IERC20;\n\n    // ERC20 basic token contract being held\n    IERC20 private immutable _token;\n\n    // beneficiary of tokens after they are released\n    address private immutable _beneficiary;\n\n    // timestamp when token release is enabled\n    uint256 private immutable _releaseTime;\n\n    constructor(\n        IERC20 token_,\n        address beneficiary_,\n        uint256 releaseTime_\n    ) {\n        require(releaseTime_ > block.timestamp, \"TokenTimelock: release time is before current time\");\n        _token = token_;\n        _beneficiary = beneficiary_;\n        _releaseTime = releaseTime_;\n    }\n\n    /**\n     * @return the token being held.\n     */\n    function token() public view virtual returns (IERC20) {\n        return _token;\n    }\n\n    /**\n     * @return the beneficiary of the tokens.\n     */\n    function beneficiary() public view virtual returns (address) {\n        return _beneficiary;\n    }\n\n    /**\n     * @return the time when the tokens are released.\n     */\n    function releaseTime() public view virtual returns (uint256) {\n        return _releaseTime;\n    }\n\n    /**\n     * @notice Transfers tokens held by timelock to beneficiary.\n     */\n    function release() public virtual {\n        require(block.timestamp >= releaseTime(), \"TokenTimelock: current time is before release time\");\n\n        uint256 amount = token().balanceOf(address(this));\n        require(amount > 0, \"TokenTimelock: no tokens to release\");\n\n        token().safeTransfer(beneficiary(), amount);\n    }\n}\n",
  "sourcePath": "@openzeppelin/contracts/token/ERC20/utils/TokenTimeLock.sol",
  "compiler": {
    "name": "solc",
    "version": "0.8.11+commit.d7f03943.Emscripten.clang"
  },
  "schemaVersion": "3.4.1",
  "updatedAt": "2022-01-29T00:14:25.912Z",
  "devdoc": {
    "details": "A token holder contract that will allow a beneficiary to extract the tokens after a given release time. Useful for simple vesting schedules like \"advisors get all of their tokens after 1 year\".",
    "kind": "dev",
    "methods": {
      "beneficiary()": {
        "returns": {
          "_0": "the beneficiary of the tokens."
        }
      },
      "releaseTime()": {
        "returns": {
          "_0": "the time when the tokens are released."
        }
      },
      "token()": {
        "returns": {
          "_0": "the token being held."
        }
      }
    },
    "version": 1
  },
  "userdoc": {
    "kind": "user",
    "methods": {
      "release()": {
        "notice": "Transfers tokens held by timelock to beneficiary."
      }
    },
    "version": 1
  }
}